{
  "contractName": "NFT",
  "abi": [
    {
      "inputs": [
        {
          "internalType": "string",
          "name": "name",
          "type": "string"
        },
        {
          "internalType": "string",
          "name": "symbol",
          "type": "string"
        }
      ],
      "stateMutability": "nonpayable",
      "type": "constructor"
    },
    {
      "anonymous": false,
      "inputs": [
        {
          "indexed": true,
          "internalType": "address",
          "name": "owner",
          "type": "address"
        },
        {
          "indexed": true,
          "internalType": "address",
          "name": "approved",
          "type": "address"
        },
        {
          "indexed": true,
          "internalType": "uint256",
          "name": "tokenId",
          "type": "uint256"
        }
      ],
      "name": "Approval",
      "type": "event"
    },
    {
      "anonymous": false,
      "inputs": [
        {
          "indexed": true,
          "internalType": "address",
          "name": "owner",
          "type": "address"
        },
        {
          "indexed": true,
          "internalType": "address",
          "name": "operator",
          "type": "address"
        },
        {
          "indexed": false,
          "internalType": "bool",
          "name": "approved",
          "type": "bool"
        }
      ],
      "name": "ApprovalForAll",
      "type": "event"
    },
    {
      "anonymous": false,
      "inputs": [
        {
          "indexed": true,
          "internalType": "address",
          "name": "from",
          "type": "address"
        },
        {
          "indexed": true,
          "internalType": "address",
          "name": "to",
          "type": "address"
        },
        {
          "indexed": true,
          "internalType": "uint256",
          "name": "tokenId",
          "type": "uint256"
        }
      ],
      "name": "Transfer",
      "type": "event"
    },
    {
      "inputs": [
        {
          "internalType": "address",
          "name": "to",
          "type": "address"
        },
        {
          "internalType": "uint256",
          "name": "tokenId",
          "type": "uint256"
        }
      ],
      "name": "approve",
      "outputs": [],
      "stateMutability": "nonpayable",
      "type": "function"
    },
    {
      "inputs": [
        {
          "internalType": "address",
          "name": "owner",
          "type": "address"
        }
      ],
      "name": "balanceOf",
      "outputs": [
        {
          "internalType": "uint256",
          "name": "",
          "type": "uint256"
        }
      ],
      "stateMutability": "view",
      "type": "function",
      "constant": true
    },
    {
      "inputs": [
        {
          "internalType": "uint256",
          "name": "tokenId",
          "type": "uint256"
        }
      ],
      "name": "getApproved",
      "outputs": [
        {
          "internalType": "address",
          "name": "",
          "type": "address"
        }
      ],
      "stateMutability": "view",
      "type": "function",
      "constant": true
    },
    {
      "inputs": [
        {
          "internalType": "address",
          "name": "owner",
          "type": "address"
        },
        {
          "internalType": "address",
          "name": "operator",
          "type": "address"
        }
      ],
      "name": "isApprovedForAll",
      "outputs": [
        {
          "internalType": "bool",
          "name": "",
          "type": "bool"
        }
      ],
      "stateMutability": "view",
      "type": "function",
      "constant": true
    },
    {
      "inputs": [],
      "name": "name",
      "outputs": [
        {
          "internalType": "string",
          "name": "",
          "type": "string"
        }
      ],
      "stateMutability": "view",
      "type": "function",
      "constant": true
    },
    {
      "inputs": [
        {
          "internalType": "uint256",
          "name": "tokenId",
          "type": "uint256"
        }
      ],
      "name": "ownerOf",
      "outputs": [
        {
          "internalType": "address",
          "name": "",
          "type": "address"
        }
      ],
      "stateMutability": "view",
      "type": "function",
      "constant": true
    },
    {
      "inputs": [
        {
          "internalType": "address",
          "name": "from",
          "type": "address"
        },
        {
          "internalType": "address",
          "name": "to",
          "type": "address"
        },
        {
          "internalType": "uint256",
          "name": "tokenId",
          "type": "uint256"
        }
      ],
      "name": "safeTransferFrom",
      "outputs": [],
      "stateMutability": "nonpayable",
      "type": "function"
    },
    {
      "inputs": [
        {
          "internalType": "address",
          "name": "from",
          "type": "address"
        },
        {
          "internalType": "address",
          "name": "to",
          "type": "address"
        },
        {
          "internalType": "uint256",
          "name": "tokenId",
          "type": "uint256"
        },
        {
          "internalType": "bytes",
          "name": "_data",
          "type": "bytes"
        }
      ],
      "name": "safeTransferFrom",
      "outputs": [],
      "stateMutability": "nonpayable",
      "type": "function"
    },
    {
      "inputs": [
        {
          "internalType": "address",
          "name": "operator",
          "type": "address"
        },
        {
          "internalType": "bool",
          "name": "approved",
          "type": "bool"
        }
      ],
      "name": "setApprovalForAll",
      "outputs": [],
      "stateMutability": "nonpayable",
      "type": "function"
    },
    {
      "inputs": [
        {
          "internalType": "bytes4",
          "name": "interfaceId",
          "type": "bytes4"
        }
      ],
      "name": "supportsInterface",
      "outputs": [
        {
          "internalType": "bool",
          "name": "",
          "type": "bool"
        }
      ],
      "stateMutability": "view",
      "type": "function",
      "constant": true
    },
    {
      "inputs": [],
      "name": "symbol",
      "outputs": [
        {
          "internalType": "string",
          "name": "",
          "type": "string"
        }
      ],
      "stateMutability": "view",
      "type": "function",
      "constant": true
    },
    {
      "inputs": [
        {
          "internalType": "uint256",
          "name": "tokenId",
          "type": "uint256"
        }
      ],
      "name": "tokenURI",
      "outputs": [
        {
          "internalType": "string",
          "name": "",
          "type": "string"
        }
      ],
      "stateMutability": "view",
      "type": "function",
      "constant": true
    },
    {
      "inputs": [
        {
          "internalType": "address",
          "name": "from",
          "type": "address"
        },
        {
          "internalType": "address",
          "name": "to",
          "type": "address"
        },
        {
          "internalType": "uint256",
          "name": "tokenId",
          "type": "uint256"
        }
      ],
      "name": "transferFrom",
      "outputs": [],
      "stateMutability": "nonpayable",
      "type": "function"
    },
    {
      "inputs": [
        {
          "internalType": "address",
          "name": "owner",
          "type": "address"
        },
        {
          "internalType": "string",
          "name": "uri",
          "type": "string"
        }
      ],
      "name": "mint",
      "outputs": [],
      "stateMutability": "nonpayable",
      "type": "function"
    },
    {
      "inputs": [
        {
          "internalType": "uint256",
          "name": "tokenId",
          "type": "uint256"
        }
      ],
      "name": "getURI",
      "outputs": [
        {
          "internalType": "string",
          "name": "",
          "type": "string"
        }
      ],
      "stateMutability": "view",
      "type": "function",
      "constant": true
    },
    {
      "inputs": [],
      "name": "getIds",
      "outputs": [
        {
          "internalType": "uint256[]",
          "name": "",
          "type": "uint256[]"
        }
      ],
      "stateMutability": "view",
      "type": "function",
      "constant": true
    }
  ],
  "bytecode": "0x60806040523480156200001157600080fd5b5060405162003144380380620031448339818101604052810190620000379190620002c2565b818181600090805190602001906200005192919062000075565b5080600190805190602001906200006a92919062000075565b5050505050620003ac565b828054620000839062000376565b90600052602060002090601f016020900481019282620000a75760008555620000f3565b82601f10620000c257805160ff1916838001178555620000f3565b82800160010185558215620000f3579182015b82811115620000f2578251825591602001919060010190620000d5565b5b50905062000102919062000106565b5090565b5b808211156200012157600081600090555060010162000107565b5090565b6000604051905090565b600080fd5b600080fd5b600080fd5b600080fd5b6000601f19601f8301169050919050565b7f4e487b7100000000000000000000000000000000000000000000000000000000600052604160045260246000fd5b6200018e8262000143565b810181811067ffffffffffffffff82111715620001b057620001af62000154565b5b80604052505050565b6000620001c562000125565b9050620001d3828262000183565b919050565b600067ffffffffffffffff821115620001f657620001f562000154565b5b620002018262000143565b9050602081019050919050565b60005b838110156200022e57808201518184015260208101905062000211565b838111156200023e576000848401525b50505050565b60006200025b6200025584620001d8565b620001b9565b9050828152602081018484840111156200027a57620002796200013e565b5b620002878482856200020e565b509392505050565b600082601f830112620002a757620002a662000139565b5b8151620002b984826020860162000244565b91505092915050565b60008060408385031215620002dc57620002db6200012f565b5b600083015167ffffffffffffffff811115620002fd57620002fc62000134565b5b6200030b858286016200028f565b925050602083015167ffffffffffffffff8111156200032f576200032e62000134565b5b6200033d858286016200028f565b9150509250929050565b7f4e487b7100000000000000000000000000000000000000000000000000000000600052602260045260246000fd5b600060028204905060018216806200038f57607f821691505b60208210811415620003a657620003a562000347565b5b50919050565b612d8880620003bc6000396000f3fe608060405234801561001057600080fd5b50600436106101005760003560e01c80636352211e11610097578063b88d4fde11610066578063b88d4fde146102bf578063c87b56dd146102db578063d0def5211461030b578063e985e9c51461032757610100565b80636352211e1461022557806370a082311461025557806395d89b4114610285578063a22cb465146102a357610100565b80631aa347dc116100d35780631aa347dc1461019f57806323b872dd146101cf5780632b105663146101eb57806342842e0e1461020957610100565b806301ffc9a71461010557806306fdde0314610135578063081812fc14610153578063095ea7b314610183575b600080fd5b61011f600480360381019061011a9190611a85565b610357565b60405161012c9190611acd565b60405180910390f35b61013d610439565b60405161014a9190611b81565b60405180910390f35b61016d60048036038101906101689190611bd9565b6104cb565b60405161017a9190611c47565b60405180910390f35b61019d60048036038101906101989190611c8e565b610550565b005b6101b960048036038101906101b49190611bd9565b610668565b6040516101c69190611b81565b60405180910390f35b6101e960048036038101906101e49190611cce565b610801565b005b6101f3610861565b6040516102009190611ddf565b60405180910390f35b610223600480360381019061021e9190611cce565b6108b9565b005b61023f600480360381019061023a9190611bd9565b6108d9565b60405161024c9190611c47565b60405180910390f35b61026f600480360381019061026a9190611e01565b61098b565b60405161027c9190611e3d565b60405180910390f35b61028d610a43565b60405161029a9190611b81565b60405180910390f35b6102bd60048036038101906102b89190611e84565b610ad5565b005b6102d960048036038101906102d49190611ff9565b610aeb565b005b6102f560048036038101906102f09190611bd9565b610b4d565b6040516103029190611b81565b60405180910390f35b6103256004803603810190610320919061211d565b610bf4565b005b610341600480360381019061033c9190612179565b610c6c565b60405161034e9190611acd565b60405180910390f35b60007f80ac58cd000000000000000000000000000000000000000000000000000000007bffffffffffffffffffffffffffffffffffffffffffffffffffffffff1916827bffffffffffffffffffffffffffffffffffffffffffffffffffffffff1916148061042257507f5b5e139f000000000000000000000000000000000000000000000000000000007bffffffffffffffffffffffffffffffffffffffffffffffffffffffff1916827bffffffffffffffffffffffffffffffffffffffffffffffffffffffff1916145b80610432575061043182610d00565b5b9050919050565b606060008054610448906121e8565b80601f0160208091040260200160405190810160405280929190818152602001828054610474906121e8565b80156104c15780601f10610496576101008083540402835291602001916104c1565b820191906000526020600020905b8154815290600101906020018083116104a457829003601f168201915b5050505050905090565b60006104d682610d6a565b610515576040517f08c379a000000000000000000000000000000000000000000000000000000000815260040161050c9061228c565b60405180910390fd5b6004600083815260200190815260200160002060009054906101000a900473ffffffffffffffffffffffffffffffffffffffff169050919050565b600061055b826108d9565b90508073ffffffffffffffffffffffffffffffffffffffff168373ffffffffffffffffffffffffffffffffffffffff1614156105cc576040517f08c379a00000000000000000000000000000000000000000000000000000000081526004016105c39061231e565b60405180910390fd5b8073ffffffffffffffffffffffffffffffffffffffff166105eb610dd6565b73ffffffffffffffffffffffffffffffffffffffff16148061061a575061061981610614610dd6565b610c6c565b5b610659576040517f08c379a0000000000000000000000000000000000000000000000000000000008152600401610650906123b0565b60405180910390fd5b6106638383610dde565b505050565b606061071e60086000848152602001908152602001600020805461068b906121e8565b80601f01602080910402602001604051908101604052809291908181526020018280546106b7906121e8565b80156107045780601f106106d957610100808354040283529160200191610704565b820191906000526020600020905b8154815290600101906020018083116106e757829003601f168201915b505050505060405180602001604052806000815250610e97565b1561075e576040517f08c379a000000000000000000000000000000000000000000000000000000000815260040161075590612442565b60405180910390fd5b60086000838152602001908152602001600020805461077c906121e8565b80601f01602080910402602001604051908101604052809291908181526020018280546107a8906121e8565b80156107f55780601f106107ca576101008083540402835291602001916107f5565b820191906000526020600020905b8154815290600101906020018083116107d857829003601f168201915b50505050509050919050565b61081261080c610dd6565b82610ef0565b610851576040517f08c379a0000000000000000000000000000000000000000000000000000000008152600401610848906124d4565b60405180910390fd5b61085c838383610fce565b505050565b606060078054806020026020016040519081016040528092919081815260200182805480156108af57602002820191906000526020600020905b81548152602001906001019080831161089b575b5050505050905090565b6108d483838360405180602001604052806000815250610aeb565b505050565b6000806002600084815260200190815260200160002060009054906101000a900473ffffffffffffffffffffffffffffffffffffffff169050600073ffffffffffffffffffffffffffffffffffffffff168173ffffffffffffffffffffffffffffffffffffffff161415610982576040517f08c379a000000000000000000000000000000000000000000000000000000000815260040161097990612566565b60405180910390fd5b80915050919050565b60008073ffffffffffffffffffffffffffffffffffffffff168273ffffffffffffffffffffffffffffffffffffffff1614156109fc576040517f08c379a00000000000000000000000000000000000000000000000000000000081526004016109f3906125f8565b60405180910390fd5b600360008373ffffffffffffffffffffffffffffffffffffffff1673ffffffffffffffffffffffffffffffffffffffff168152602001908152602001600020549050919050565b606060018054610a52906121e8565b80601f0160208091040260200160405190810160405280929190818152602001828054610a7e906121e8565b8015610acb5780601f10610aa057610100808354040283529160200191610acb565b820191906000526020600020905b815481529060010190602001808311610aae57829003601f168201915b5050505050905090565b610ae7610ae0610dd6565b838361122a565b5050565b610afc610af6610dd6565b83610ef0565b610b3b576040517f08c379a0000000000000000000000000000000000000000000000000000000008152600401610b32906124d4565b60405180910390fd5b610b4784848484611397565b50505050565b6060610b5882610d6a565b610b97576040517f08c379a0000000000000000000000000000000000000000000000000000000008152600401610b8e9061268a565b60405180910390fd5b6000610ba16113f3565b90506000815111610bc15760405180602001604052806000815250610bec565b80610bcb8461140a565b604051602001610bdc9291906126e6565b6040516020818303038152906040525b915050919050565b610bfe600661156b565b6000610c0a6006611581565b9050610c16838261158f565b81600860008381526020019081526020016000209080519060200190610c3d929190611976565b506007819080600181540180825580915050600190039060005260206000200160009091909190915055505050565b6000600560008473ffffffffffffffffffffffffffffffffffffffff1673ffffffffffffffffffffffffffffffffffffffff16815260200190815260200160002060008373ffffffffffffffffffffffffffffffffffffffff1673ffffffffffffffffffffffffffffffffffffffff16815260200190815260200160002060009054906101000a900460ff16905092915050565b60007f01ffc9a7000000000000000000000000000000000000000000000000000000007bffffffffffffffffffffffffffffffffffffffffffffffffffffffff1916827bffffffffffffffffffffffffffffffffffffffffffffffffffffffff1916149050919050565b60008073ffffffffffffffffffffffffffffffffffffffff166002600084815260200190815260200160002060009054906101000a900473ffffffffffffffffffffffffffffffffffffffff1673ffffffffffffffffffffffffffffffffffffffff1614159050919050565b600033905090565b816004600083815260200190815260200160002060006101000a81548173ffffffffffffffffffffffffffffffffffffffff021916908373ffffffffffffffffffffffffffffffffffffffff160217905550808273ffffffffffffffffffffffffffffffffffffffff16610e51836108d9565b73ffffffffffffffffffffffffffffffffffffffff167f8c5be1e5ebec7d5bd14f71427d1e84f3dd0314c0f7b2291e5b200ac8c7c3b92560405160405180910390a45050565b600081604051602001610eaa919061270a565b6040516020818303038152906040528051906020012083604051602001610ed1919061270a565b6040516020818303038152906040528051906020012014905092915050565b6000610efb82610d6a565b610f3a576040517f08c379a0000000000000000000000000000000000000000000000000000000008152600401610f3190612793565b60405180910390fd5b6000610f45836108d9565b90508073ffffffffffffffffffffffffffffffffffffffff168473ffffffffffffffffffffffffffffffffffffffff161480610fb457508373ffffffffffffffffffffffffffffffffffffffff16610f9c846104cb565b73ffffffffffffffffffffffffffffffffffffffff16145b80610fc55750610fc48185610c6c565b5b91505092915050565b8273ffffffffffffffffffffffffffffffffffffffff16610fee826108d9565b73ffffffffffffffffffffffffffffffffffffffff1614611044576040517f08c379a000000000000000000000000000000000000000000000000000000000815260040161103b90612825565b60405180910390fd5b600073ffffffffffffffffffffffffffffffffffffffff168273ffffffffffffffffffffffffffffffffffffffff1614156110b4576040517f08c379a00000000000000000000000000000000000000000000000000000000081526004016110ab906128b7565b60405180910390fd5b6110bf8383836115ad565b6110ca600082610dde565b6001600360008573ffffffffffffffffffffffffffffffffffffffff1673ffffffffffffffffffffffffffffffffffffffff168152602001908152602001600020600082825461111a9190612906565b925050819055506001600360008473ffffffffffffffffffffffffffffffffffffffff1673ffffffffffffffffffffffffffffffffffffffff1681526020019081526020016000206000828254611171919061293a565b92505081905550816002600083815260200190815260200160002060006101000a81548173ffffffffffffffffffffffffffffffffffffffff021916908373ffffffffffffffffffffffffffffffffffffffff160217905550808273ffffffffffffffffffffffffffffffffffffffff168473ffffffffffffffffffffffffffffffffffffffff167fddf252ad1be2c89b69c2b068fc378daa952ba7f163c4a11628f55a4df523b3ef60405160405180910390a4505050565b8173ffffffffffffffffffffffffffffffffffffffff168373ffffffffffffffffffffffffffffffffffffffff161415611299576040517f08c379a0000000000000000000000000000000000000000000000000000000008152600401611290906129dc565b60405180910390fd5b80600560008573ffffffffffffffffffffffffffffffffffffffff1673ffffffffffffffffffffffffffffffffffffffff16815260200190815260200160002060008473ffffffffffffffffffffffffffffffffffffffff1673ffffffffffffffffffffffffffffffffffffffff16815260200190815260200160002060006101000a81548160ff0219169083151502179055508173ffffffffffffffffffffffffffffffffffffffff168373ffffffffffffffffffffffffffffffffffffffff167f17307eab39ab6107e8899845ad3d59bd9653f200f220920489ca2b5937696c318360405161138a9190611acd565b60405180910390a3505050565b6113a2848484610fce565b6113ae848484846115b2565b6113ed576040517f08c379a00000000000000000000000000000000000000000000000000000000081526004016113e490612a6e565b60405180910390fd5b50505050565b606060405180602001604052806000815250905090565b60606000821415611452576040518060400160405280600181526020017f30000000000000000000000000000000000000000000000000000000000000008152509050611566565b600082905060005b6000821461148457808061146d90612a8e565b915050600a8261147d9190612b06565b915061145a565b60008167ffffffffffffffff8111156114a05761149f611ece565b5b6040519080825280601f01601f1916602001820160405280156114d25781602001600182028036833780820191505090505b5090505b6000851461155f576001826114eb9190612906565b9150600a856114fa9190612b37565b6030611506919061293a565b60f81b81838151811061151c5761151b612b68565b5b60200101907effffffffffffffffffffffffffffffffffffffffffffffffffffffffffffff1916908160001a905350600a856115589190612b06565b94506114d6565b8093505050505b919050565b6001816000016000828254019250508190555050565b600081600001549050919050565b6115a982826040518060200160405280600081525061173a565b5050565b505050565b60006115d38473ffffffffffffffffffffffffffffffffffffffff16611795565b1561172d578373ffffffffffffffffffffffffffffffffffffffff1663150b7a026115fc610dd6565b8786866040518563ffffffff1660e01b815260040161161e9493929190612bec565b6020604051808303816000875af192505050801561165a57506040513d601f19601f820116820180604052508101906116579190612c4d565b60015b6116dd573d806000811461168a576040519150601f19603f3d011682016040523d82523d6000602084013e61168f565b606091505b506000815114156116d5576040517f08c379a00000000000000000000000000000000000000000000000000000000081526004016116cc90612a6e565b60405180910390fd5b805181602001fd5b63150b7a0260e01b7bffffffffffffffffffffffffffffffffffffffffffffffffffffffff1916817bffffffffffffffffffffffffffffffffffffffffffffffffffffffff191614915050611732565b600190505b949350505050565b61174483836117a8565b61175160008484846115b2565b611790576040517f08c379a000000000000000000000000000000000000000000000000000000000815260040161178790612a6e565b60405180910390fd5b505050565b600080823b905060008111915050919050565b600073ffffffffffffffffffffffffffffffffffffffff168273ffffffffffffffffffffffffffffffffffffffff161415611818576040517f08c379a000000000000000000000000000000000000000000000000000000000815260040161180f90612cc6565b60405180910390fd5b61182181610d6a565b15611861576040517f08c379a000000000000000000000000000000000000000000000000000000000815260040161185890612d32565b60405180910390fd5b61186d600083836115ad565b6001600360008473ffffffffffffffffffffffffffffffffffffffff1673ffffffffffffffffffffffffffffffffffffffff16815260200190815260200160002060008282546118bd919061293a565b92505081905550816002600083815260200190815260200160002060006101000a81548173ffffffffffffffffffffffffffffffffffffffff021916908373ffffffffffffffffffffffffffffffffffffffff160217905550808273ffffffffffffffffffffffffffffffffffffffff16600073ffffffffffffffffffffffffffffffffffffffff167fddf252ad1be2c89b69c2b068fc378daa952ba7f163c4a11628f55a4df523b3ef60405160405180910390a45050565b828054611982906121e8565b90600052602060002090601f0160209004810192826119a457600085556119eb565b82601f106119bd57805160ff19168380011785556119eb565b828001600101855582156119eb579182015b828111156119ea5782518255916020019190600101906119cf565b5b5090506119f891906119fc565b5090565b5b80821115611a155760008160009055506001016119fd565b5090565b6000604051905090565b600080fd5b600080fd5b60007fffffffff0000000000000000000000000000000000000000000000000000000082169050919050565b611a6281611a2d565b8114611a6d57600080fd5b50565b600081359050611a7f81611a59565b92915050565b600060208284031215611a9b57611a9a611a23565b5b6000611aa984828501611a70565b91505092915050565b60008115159050919050565b611ac781611ab2565b82525050565b6000602082019050611ae26000830184611abe565b92915050565b600081519050919050565b600082825260208201905092915050565b60005b83811015611b22578082015181840152602081019050611b07565b83811115611b31576000848401525b50505050565b6000601f19601f8301169050919050565b6000611b5382611ae8565b611b5d8185611af3565b9350611b6d818560208601611b04565b611b7681611b37565b840191505092915050565b60006020820190508181036000830152611b9b8184611b48565b905092915050565b6000819050919050565b611bb681611ba3565b8114611bc157600080fd5b50565b600081359050611bd381611bad565b92915050565b600060208284031215611bef57611bee611a23565b5b6000611bfd84828501611bc4565b91505092915050565b600073ffffffffffffffffffffffffffffffffffffffff82169050919050565b6000611c3182611c06565b9050919050565b611c4181611c26565b82525050565b6000602082019050611c5c6000830184611c38565b92915050565b611c6b81611c26565b8114611c7657600080fd5b50565b600081359050611c8881611c62565b92915050565b60008060408385031215611ca557611ca4611a23565b5b6000611cb385828601611c79565b9250506020611cc485828601611bc4565b9150509250929050565b600080600060608486031215611ce757611ce6611a23565b5b6000611cf586828701611c79565b9350506020611d0686828701611c79565b9250506040611d1786828701611bc4565b9150509250925092565b600081519050919050565b600082825260208201905092915050565b6000819050602082019050919050565b611d5681611ba3565b82525050565b6000611d688383611d4d565b60208301905092915050565b6000602082019050919050565b6000611d8c82611d21565b611d968185611d2c565b9350611da183611d3d565b8060005b83811015611dd2578151611db98882611d5c565b9750611dc483611d74565b925050600181019050611da5565b5085935050505092915050565b60006020820190508181036000830152611df98184611d81565b905092915050565b600060208284031215611e1757611e16611a23565b5b6000611e2584828501611c79565b91505092915050565b611e3781611ba3565b82525050565b6000602082019050611e526000830184611e2e565b92915050565b611e6181611ab2565b8114611e6c57600080fd5b50565b600081359050611e7e81611e58565b92915050565b60008060408385031215611e9b57611e9a611a23565b5b6000611ea985828601611c79565b9250506020611eba85828601611e6f565b9150509250929050565b600080fd5b600080fd5b7f4e487b7100000000000000000000000000000000000000000000000000000000600052604160045260246000fd5b611f0682611b37565b810181811067ffffffffffffffff82111715611f2557611f24611ece565b5b80604052505050565b6000611f38611a19565b9050611f448282611efd565b919050565b600067ffffffffffffffff821115611f6457611f63611ece565b5b611f6d82611b37565b9050602081019050919050565b82818337600083830152505050565b6000611f9c611f9784611f49565b611f2e565b905082815260208101848484011115611fb857611fb7611ec9565b5b611fc3848285611f7a565b509392505050565b600082601f830112611fe057611fdf611ec4565b5b8135611ff0848260208601611f89565b91505092915050565b6000806000806080858703121561201357612012611a23565b5b600061202187828801611c79565b945050602061203287828801611c79565b935050604061204387828801611bc4565b925050606085013567ffffffffffffffff81111561206457612063611a28565b5b61207087828801611fcb565b91505092959194509250565b600067ffffffffffffffff82111561209757612096611ece565b5b6120a082611b37565b9050602081019050919050565b60006120c06120bb8461207c565b611f2e565b9050828152602081018484840111156120dc576120db611ec9565b5b6120e7848285611f7a565b509392505050565b600082601f83011261210457612103611ec4565b5b81356121148482602086016120ad565b91505092915050565b6000806040838503121561213457612133611a23565b5b600061214285828601611c79565b925050602083013567ffffffffffffffff81111561216357612162611a28565b5b61216f858286016120ef565b9150509250929050565b600080604083850312156121905761218f611a23565b5b600061219e85828601611c79565b92505060206121af85828601611c79565b9150509250929050565b7f4e487b7100000000000000000000000000000000000000000000000000000000600052602260045260246000fd5b6000600282049050600182168061220057607f821691505b60208210811415612214576122136121b9565b5b50919050565b7f4552433732313a20617070726f76656420717565727920666f72206e6f6e657860008201527f697374656e7420746f6b656e0000000000000000000000000000000000000000602082015250565b6000612276602c83611af3565b91506122818261221a565b604082019050919050565b600060208201905081810360008301526122a581612269565b9050919050565b7f4552433732313a20617070726f76616c20746f2063757272656e74206f776e6560008201527f7200000000000000000000000000000000000000000000000000000000000000602082015250565b6000612308602183611af3565b9150612313826122ac565b604082019050919050565b60006020820190508181036000830152612337816122fb565b9050919050565b7f4552433732313a20617070726f76652063616c6c6572206973206e6f74206f7760008201527f6e6572206e6f7220617070726f76656420666f7220616c6c0000000000000000602082015250565b600061239a603883611af3565b91506123a58261233e565b604082019050919050565b600060208201905081810360008301526123c98161238d565b9050919050565b7f5365617263682055524920666f7220616e20696e6578697374616e7420746f6b60008201527f656e000000000000000000000000000000000000000000000000000000000000602082015250565b600061242c602283611af3565b9150612437826123d0565b604082019050919050565b6000602082019050818103600083015261245b8161241f565b9050919050565b7f4552433732313a207472616e736665722063616c6c6572206973206e6f74206f60008201527f776e6572206e6f7220617070726f766564000000000000000000000000000000602082015250565b60006124be603183611af3565b91506124c982612462565b604082019050919050565b600060208201905081810360008301526124ed816124b1565b9050919050565b7f4552433732313a206f776e657220717565727920666f72206e6f6e657869737460008201527f656e7420746f6b656e0000000000000000000000000000000000000000000000602082015250565b6000612550602983611af3565b915061255b826124f4565b604082019050919050565b6000602082019050818103600083015261257f81612543565b9050919050565b7f4552433732313a2062616c616e636520717565727920666f7220746865207a6560008201527f726f206164647265737300000000000000000000000000000000000000000000602082015250565b60006125e2602a83611af3565b91506125ed82612586565b604082019050919050565b60006020820190508181036000830152612611816125d5565b9050919050565b7f4552433732314d657461646174613a2055524920717565727920666f72206e6f60008201527f6e6578697374656e7420746f6b656e0000000000000000000000000000000000602082015250565b6000612674602f83611af3565b915061267f82612618565b604082019050919050565b600060208201905081810360008301526126a381612667565b9050919050565b600081905092915050565b60006126c082611ae8565b6126ca81856126aa565b93506126da818560208601611b04565b80840191505092915050565b60006126f282856126b5565b91506126fe82846126b5565b91508190509392505050565b600061271682846126b5565b915081905092915050565b7f4552433732313a206f70657261746f7220717565727920666f72206e6f6e657860008201527f697374656e7420746f6b656e0000000000000000000000000000000000000000602082015250565b600061277d602c83611af3565b915061278882612721565b604082019050919050565b600060208201905081810360008301526127ac81612770565b9050919050565b7f4552433732313a207472616e73666572206f6620746f6b656e2074686174206960008201527f73206e6f74206f776e0000000000000000000000000000000000000000000000602082015250565b600061280f602983611af3565b915061281a826127b3565b604082019050919050565b6000602082019050818103600083015261283e81612802565b9050919050565b7f4552433732313a207472616e7366657220746f20746865207a65726f2061646460008201527f7265737300000000000000000000000000000000000000000000000000000000602082015250565b60006128a1602483611af3565b91506128ac82612845565b604082019050919050565b600060208201905081810360008301526128d081612894565b9050919050565b7f4e487b7100000000000000000000000000000000000000000000000000000000600052601160045260246000fd5b600061291182611ba3565b915061291c83611ba3565b92508282101561292f5761292e6128d7565b5b828203905092915050565b600061294582611ba3565b915061295083611ba3565b9250827fffffffffffffffffffffffffffffffffffffffffffffffffffffffffffffffff03821115612985576129846128d7565b5b828201905092915050565b7f4552433732313a20617070726f766520746f2063616c6c657200000000000000600082015250565b60006129c6601983611af3565b91506129d182612990565b602082019050919050565b600060208201905081810360008301526129f5816129b9565b9050919050565b7f4552433732313a207472616e7366657220746f206e6f6e20455243373231526560008201527f63656976657220696d706c656d656e7465720000000000000000000000000000602082015250565b6000612a58603283611af3565b9150612a63826129fc565b604082019050919050565b60006020820190508181036000830152612a8781612a4b565b9050919050565b6000612a9982611ba3565b91507fffffffffffffffffffffffffffffffffffffffffffffffffffffffffffffffff821415612acc57612acb6128d7565b5b600182019050919050565b7f4e487b7100000000000000000000000000000000000000000000000000000000600052601260045260246000fd5b6000612b1182611ba3565b9150612b1c83611ba3565b925082612b2c57612b2b612ad7565b5b828204905092915050565b6000612b4282611ba3565b9150612b4d83611ba3565b925082612b5d57612b5c612ad7565b5b828206905092915050565b7f4e487b7100000000000000000000000000000000000000000000000000000000600052603260045260246000fd5b600081519050919050565b600082825260208201905092915050565b6000612bbe82612b97565b612bc88185612ba2565b9350612bd8818560208601611b04565b612be181611b37565b840191505092915050565b6000608082019050612c016000830187611c38565b612c0e6020830186611c38565b612c1b6040830185611e2e565b8181036060830152612c2d8184612bb3565b905095945050505050565b600081519050612c4781611a59565b92915050565b600060208284031215612c6357612c62611a23565b5b6000612c7184828501612c38565b91505092915050565b7f4552433732313a206d696e7420746f20746865207a65726f2061646472657373600082015250565b6000612cb0602083611af3565b9150612cbb82612c7a565b602082019050919050565b60006020820190508181036000830152612cdf81612ca3565b9050919050565b7f4552433732313a20746f6b656e20616c7265616479206d696e74656400000000600082015250565b6000612d1c601c83611af3565b9150612d2782612ce6565b602082019050919050565b60006020820190508181036000830152612d4b81612d0f565b905091905056fea26469706673582212207bfc7c5a9c528414011aa2f10fdced4185fa98a041339e49cfde69e0f76fa41d64736f6c634300080a0033",
  "immutableReferences": {},
  "source": "// SPDX-License-Identifier: MIT\npragma solidity <= 9.0.0;\n\nimport \"@openzeppelin/contracts/token/ERC721/ERC721.sol\";\nimport \"@openzeppelin/contracts/token/ERC721/extensions/ERC721URIStorage.sol\";\nimport \"@openzeppelin/contracts/utils/Counters.sol\";\n\n/**\n * TODO:\n *  - Read ERC721 to understand how the NFT precisely works\n *      https://github.com/OpenZeppelin/openzeppelin-contracts/blob/master/contracts/token/ERC721/ERC721.sol\n *  - To call all functions of ERC721\n */\ncontract NFT is ERC721 {\n\n    using Counters for Counters.Counter;\n    Counters.Counter private _tokenIds;\n    uint256[] private _ids;\n    mapping(uint256 => string) private _tokenURIs;\n\n    constructor(\n        string memory name,\n        string memory symbol\n    )\n    ERC721(name, symbol)\n    {\n    }\n\n    function mint(address owner, string memory uri) public {\n        _tokenIds.increment();\n\n        uint256 id = _tokenIds.current();\n        _safeMint(owner, id);\n        _tokenURIs[id] = uri;\n        _ids.push(id);\n    }\n\n    function getURI(uint256 tokenId) public view returns(string memory) {\n        require(!_compareStrings(_tokenURIs[tokenId], \"\"), \"Search URI for an inexistant token\");\n        return _tokenURIs[tokenId];\n    }\n\n    function getIds() public view returns(uint256[] memory) {\n        return _ids;\n    }\n\n    function _compareStrings(string memory a, string memory b)\n    internal pure returns (bool) {\n        return (\n            keccak256(abi.encodePacked((a))) ==\n            keccak256(abi.encodePacked((b)))\n        );\n    }\n}",
  "sourcePath": "/home/l.gicquel/NFT/solidity/contracts/NFT.sol",
  "compiler": {
    "name": "solc",
    "version": "0.8.10+commit.fc410830.Emscripten.clang"
  },
  "schemaVersion": "3.4.4",
  "updatedAt": "2022-01-17T14:28:00.458Z",
  "networkType": "ethereum",
  "devdoc": {
    "kind": "dev",
    "methods": {
      "approve(address,uint256)": {
        "details": "See {IERC721-approve}."
      },
      "balanceOf(address)": {
        "details": "See {IERC721-balanceOf}."
      },
      "getApproved(uint256)": {
        "details": "See {IERC721-getApproved}."
      },
      "isApprovedForAll(address,address)": {
        "details": "See {IERC721-isApprovedForAll}."
      },
      "name()": {
        "details": "See {IERC721Metadata-name}."
      },
      "ownerOf(uint256)": {
        "details": "See {IERC721-ownerOf}."
      },
      "safeTransferFrom(address,address,uint256)": {
        "details": "See {IERC721-safeTransferFrom}."
      },
      "safeTransferFrom(address,address,uint256,bytes)": {
        "details": "See {IERC721-safeTransferFrom}."
      },
      "setApprovalForAll(address,bool)": {
        "details": "See {IERC721-setApprovalForAll}."
      },
      "supportsInterface(bytes4)": {
        "details": "See {IERC165-supportsInterface}."
      },
      "symbol()": {
        "details": "See {IERC721Metadata-symbol}."
      },
      "tokenURI(uint256)": {
        "details": "See {IERC721Metadata-tokenURI}."
      },
      "transferFrom(address,address,uint256)": {
        "details": "See {IERC721-transferFrom}."
      }
    },
    "version": 1
  },
  "userdoc": {
    "kind": "user",
    "methods": {},
    "notice": "TODO:  - Read ERC721 to understand how the NFT precisely works      https://github.com/OpenZeppelin/openzeppelin-contracts/blob/master/contracts/token/ERC721/ERC721.sol  - To call all functions of ERC721",
    "version": 1
  }
}