{
  "contractName": "NFT",
  "abi": [
    {
      "inputs": [
        {
          "internalType": "string",
          "name": "name",
          "type": "string"
        },
        {
          "internalType": "string",
          "name": "symbol",
          "type": "string"
        }
      ],
      "stateMutability": "nonpayable",
      "type": "constructor"
    },
    {
      "anonymous": false,
      "inputs": [
        {
          "indexed": true,
          "internalType": "address",
          "name": "owner",
          "type": "address"
        },
        {
          "indexed": true,
          "internalType": "address",
          "name": "approved",
          "type": "address"
        },
        {
          "indexed": true,
          "internalType": "uint256",
          "name": "tokenId",
          "type": "uint256"
        }
      ],
      "name": "Approval",
      "type": "event"
    },
    {
      "anonymous": false,
      "inputs": [
        {
          "indexed": true,
          "internalType": "address",
          "name": "owner",
          "type": "address"
        },
        {
          "indexed": true,
          "internalType": "address",
          "name": "operator",
          "type": "address"
        },
        {
          "indexed": false,
          "internalType": "bool",
          "name": "approved",
          "type": "bool"
        }
      ],
      "name": "ApprovalForAll",
      "type": "event"
    },
    {
      "anonymous": false,
      "inputs": [
        {
          "indexed": true,
          "internalType": "address",
          "name": "from",
          "type": "address"
        },
        {
          "indexed": true,
          "internalType": "address",
          "name": "to",
          "type": "address"
        },
        {
          "indexed": true,
          "internalType": "uint256",
          "name": "tokenId",
          "type": "uint256"
        }
      ],
      "name": "Transfer",
      "type": "event"
    },
    {
      "inputs": [
        {
          "internalType": "address",
          "name": "to",
          "type": "address"
        },
        {
          "internalType": "uint256",
          "name": "tokenId",
          "type": "uint256"
        }
      ],
      "name": "approve",
      "outputs": [],
      "stateMutability": "nonpayable",
      "type": "function"
    },
    {
      "inputs": [
        {
          "internalType": "address",
          "name": "owner",
          "type": "address"
        }
      ],
      "name": "balanceOf",
      "outputs": [
        {
          "internalType": "uint256",
          "name": "",
          "type": "uint256"
        }
      ],
      "stateMutability": "view",
      "type": "function",
      "constant": true
    },
    {
      "inputs": [
        {
          "internalType": "uint256",
          "name": "tokenId",
          "type": "uint256"
        }
      ],
      "name": "getApproved",
      "outputs": [
        {
          "internalType": "address",
          "name": "",
          "type": "address"
        }
      ],
      "stateMutability": "view",
      "type": "function",
      "constant": true
    },
    {
      "inputs": [
        {
          "internalType": "address",
          "name": "owner",
          "type": "address"
        },
        {
          "internalType": "address",
          "name": "operator",
          "type": "address"
        }
      ],
      "name": "isApprovedForAll",
      "outputs": [
        {
          "internalType": "bool",
          "name": "",
          "type": "bool"
        }
      ],
      "stateMutability": "view",
      "type": "function",
      "constant": true
    },
    {
      "inputs": [],
      "name": "name",
      "outputs": [
        {
          "internalType": "string",
          "name": "",
          "type": "string"
        }
      ],
      "stateMutability": "view",
      "type": "function",
      "constant": true
    },
    {
      "inputs": [
        {
          "internalType": "uint256",
          "name": "tokenId",
          "type": "uint256"
        }
      ],
      "name": "ownerOf",
      "outputs": [
        {
          "internalType": "address",
          "name": "",
          "type": "address"
        }
      ],
      "stateMutability": "view",
      "type": "function",
      "constant": true
    },
    {
      "inputs": [
        {
          "internalType": "address",
          "name": "from",
          "type": "address"
        },
        {
          "internalType": "address",
          "name": "to",
          "type": "address"
        },
        {
          "internalType": "uint256",
          "name": "tokenId",
          "type": "uint256"
        }
      ],
      "name": "safeTransferFrom",
      "outputs": [],
      "stateMutability": "nonpayable",
      "type": "function"
    },
    {
      "inputs": [
        {
          "internalType": "address",
          "name": "from",
          "type": "address"
        },
        {
          "internalType": "address",
          "name": "to",
          "type": "address"
        },
        {
          "internalType": "uint256",
          "name": "tokenId",
          "type": "uint256"
        },
        {
          "internalType": "bytes",
          "name": "_data",
          "type": "bytes"
        }
      ],
      "name": "safeTransferFrom",
      "outputs": [],
      "stateMutability": "nonpayable",
      "type": "function"
    },
    {
      "inputs": [
        {
          "internalType": "address",
          "name": "operator",
          "type": "address"
        },
        {
          "internalType": "bool",
          "name": "approved",
          "type": "bool"
        }
      ],
      "name": "setApprovalForAll",
      "outputs": [],
      "stateMutability": "nonpayable",
      "type": "function"
    },
    {
      "inputs": [
        {
          "internalType": "bytes4",
          "name": "interfaceId",
          "type": "bytes4"
        }
      ],
      "name": "supportsInterface",
      "outputs": [
        {
          "internalType": "bool",
          "name": "",
          "type": "bool"
        }
      ],
      "stateMutability": "view",
      "type": "function",
      "constant": true
    },
    {
      "inputs": [],
      "name": "symbol",
      "outputs": [
        {
          "internalType": "string",
          "name": "",
          "type": "string"
        }
      ],
      "stateMutability": "view",
      "type": "function",
      "constant": true
    },
    {
      "inputs": [
        {
          "internalType": "uint256",
          "name": "tokenId",
          "type": "uint256"
        }
      ],
      "name": "tokenURI",
      "outputs": [
        {
          "internalType": "string",
          "name": "",
          "type": "string"
        }
      ],
      "stateMutability": "view",
      "type": "function",
      "constant": true
    },
    {
      "inputs": [
        {
          "internalType": "address",
          "name": "from",
          "type": "address"
        },
        {
          "internalType": "address",
          "name": "to",
          "type": "address"
        },
        {
          "internalType": "uint256",
          "name": "tokenId",
          "type": "uint256"
        }
      ],
      "name": "transferFrom",
      "outputs": [],
      "stateMutability": "nonpayable",
      "type": "function"
    },
    {
      "inputs": [
        {
          "internalType": "address",
          "name": "owner",
          "type": "address"
        },
        {
          "internalType": "string",
          "name": "uri",
          "type": "string"
        }
      ],
      "name": "mint",
      "outputs": [],
      "stateMutability": "nonpayable",
      "type": "function"
    },
    {
      "inputs": [
        {
          "internalType": "uint256",
          "name": "tokenId",
          "type": "uint256"
        }
      ],
      "name": "getURI",
      "outputs": [
        {
          "internalType": "string",
          "name": "",
          "type": "string"
        }
      ],
      "stateMutability": "view",
      "type": "function",
      "constant": true
    }
  ],
  "bytecode": "0x60806040523480156200001157600080fd5b5060405162002dc438038062002dc48339818101604052810190620000379190620002c2565b818181600090805190602001906200005192919062000075565b5080600190805190602001906200006a92919062000075565b5050505050620003ac565b828054620000839062000376565b90600052602060002090601f016020900481019282620000a75760008555620000f3565b82601f10620000c257805160ff1916838001178555620000f3565b82800160010185558215620000f3579182015b82811115620000f2578251825591602001919060010190620000d5565b5b50905062000102919062000106565b5090565b5b808211156200012157600081600090555060010162000107565b5090565b6000604051905090565b600080fd5b600080fd5b600080fd5b600080fd5b6000601f19601f8301169050919050565b7f4e487b7100000000000000000000000000000000000000000000000000000000600052604160045260246000fd5b6200018e8262000143565b810181811067ffffffffffffffff82111715620001b057620001af62000154565b5b80604052505050565b6000620001c562000125565b9050620001d3828262000183565b919050565b600067ffffffffffffffff821115620001f657620001f562000154565b5b620002018262000143565b9050602081019050919050565b60005b838110156200022e57808201518184015260208101905062000211565b838111156200023e576000848401525b50505050565b60006200025b6200025584620001d8565b620001b9565b9050828152602081018484840111156200027a57620002796200013e565b5b620002878482856200020e565b509392505050565b600082601f830112620002a757620002a662000139565b5b8151620002b984826020860162000244565b91505092915050565b60008060408385031215620002dc57620002db6200012f565b5b600083015167ffffffffffffffff811115620002fd57620002fc62000134565b5b6200030b858286016200028f565b925050602083015167ffffffffffffffff8111156200032f576200032e62000134565b5b6200033d858286016200028f565b9150509250929050565b7f4e487b7100000000000000000000000000000000000000000000000000000000600052602260045260246000fd5b600060028204905060018216806200038f57607f821691505b60208210811415620003a657620003a562000347565b5b50919050565b612a0880620003bc6000396000f3fe608060405234801561001057600080fd5b50600436106100f55760003560e01c80636352211e11610097578063b88d4fde11610066578063b88d4fde14610296578063c87b56dd146102b2578063d0def521146102e2578063e985e9c5146102fe576100f5565b80636352211e146101fc57806370a082311461022c57806395d89b411461025c578063a22cb4651461027a576100f5565b8063095ea7b3116100d3578063095ea7b3146101785780631aa347dc1461019457806323b872dd146101c457806342842e0e146101e0576100f5565b806301ffc9a7146100fa57806306fdde031461012a578063081812fc14610148575b600080fd5b610114600480360381019061010f919061188e565b61032e565b60405161012191906118d6565b60405180910390f35b610132610410565b60405161013f919061198a565b60405180910390f35b610162600480360381019061015d91906119e2565b6104a2565b60405161016f9190611a50565b60405180910390f35b610192600480360381019061018d9190611a97565b610527565b005b6101ae60048036038101906101a991906119e2565b61063f565b6040516101bb919061198a565b60405180910390f35b6101de60048036038101906101d99190611ad7565b6106e4565b005b6101fa60048036038101906101f59190611ad7565b610744565b005b610216600480360381019061021191906119e2565b610764565b6040516102239190611a50565b60405180910390f35b61024660048036038101906102419190611b2a565b610816565b6040516102539190611b66565b60405180910390f35b6102646108ce565b604051610271919061198a565b60405180910390f35b610294600480360381019061028f9190611bad565b610960565b005b6102b060048036038101906102ab9190611d22565b610976565b005b6102cc60048036038101906102c791906119e2565b6109d8565b6040516102d9919061198a565b60405180910390f35b6102fc60048036038101906102f79190611e46565b610a7f565b005b61031860048036038101906103139190611ea2565b610ace565b60405161032591906118d6565b60405180910390f35b60007f80ac58cd000000000000000000000000000000000000000000000000000000007bffffffffffffffffffffffffffffffffffffffffffffffffffffffff1916827bffffffffffffffffffffffffffffffffffffffffffffffffffffffff191614806103f957507f5b5e139f000000000000000000000000000000000000000000000000000000007bffffffffffffffffffffffffffffffffffffffffffffffffffffffff1916827bffffffffffffffffffffffffffffffffffffffffffffffffffffffff1916145b80610409575061040882610b62565b5b9050919050565b60606000805461041f90611f11565b80601f016020809104026020016040519081016040528092919081815260200182805461044b90611f11565b80156104985780601f1061046d57610100808354040283529160200191610498565b820191906000526020600020905b81548152906001019060200180831161047b57829003601f168201915b5050505050905090565b60006104ad82610bcc565b6104ec576040517f08c379a00000000000000000000000000000000000000000000000000000000081526004016104e390611fb5565b60405180910390fd5b6004600083815260200190815260200160002060009054906101000a900473ffffffffffffffffffffffffffffffffffffffff169050919050565b600061053282610764565b90508073ffffffffffffffffffffffffffffffffffffffff168373ffffffffffffffffffffffffffffffffffffffff1614156105a3576040517f08c379a000000000000000000000000000000000000000000000000000000000815260040161059a90612047565b60405180910390fd5b8073ffffffffffffffffffffffffffffffffffffffff166105c2610c38565b73ffffffffffffffffffffffffffffffffffffffff1614806105f157506105f0816105eb610c38565b610ace565b5b610630576040517f08c379a0000000000000000000000000000000000000000000000000000000008152600401610627906120d9565b60405180910390fd5b61063a8383610c40565b505050565b606060076000838152602001908152602001600020805461065f90611f11565b80601f016020809104026020016040519081016040528092919081815260200182805461068b90611f11565b80156106d85780601f106106ad576101008083540402835291602001916106d8565b820191906000526020600020905b8154815290600101906020018083116106bb57829003601f168201915b50505050509050919050565b6106f56106ef610c38565b82610cf9565b610734576040517f08c379a000000000000000000000000000000000000000000000000000000000815260040161072b9061216b565b60405180910390fd5b61073f838383610dd7565b505050565b61075f83838360405180602001604052806000815250610976565b505050565b6000806002600084815260200190815260200160002060009054906101000a900473ffffffffffffffffffffffffffffffffffffffff169050600073ffffffffffffffffffffffffffffffffffffffff168173ffffffffffffffffffffffffffffffffffffffff16141561080d576040517f08c379a0000000000000000000000000000000000000000000000000000000008152600401610804906121fd565b60405180910390fd5b80915050919050565b60008073ffffffffffffffffffffffffffffffffffffffff168273ffffffffffffffffffffffffffffffffffffffff161415610887576040517f08c379a000000000000000000000000000000000000000000000000000000000815260040161087e9061228f565b60405180910390fd5b600360008373ffffffffffffffffffffffffffffffffffffffff1673ffffffffffffffffffffffffffffffffffffffff168152602001908152602001600020549050919050565b6060600180546108dd90611f11565b80601f016020809104026020016040519081016040528092919081815260200182805461090990611f11565b80156109565780601f1061092b57610100808354040283529160200191610956565b820191906000526020600020905b81548152906001019060200180831161093957829003601f168201915b5050505050905090565b61097261096b610c38565b8383611033565b5050565b610987610981610c38565b83610cf9565b6109c6576040517f08c379a00000000000000000000000000000000000000000000000000000000081526004016109bd9061216b565b60405180910390fd5b6109d2848484846111a0565b50505050565b60606109e382610bcc565b610a22576040517f08c379a0000000000000000000000000000000000000000000000000000000008152600401610a1990612321565b60405180910390fd5b6000610a2c6111fc565b90506000815111610a4c5760405180602001604052806000815250610a77565b80610a5684611213565b604051602001610a6792919061237d565b6040516020818303038152906040525b915050919050565b610a896006611374565b6000610a95600661138a565b9050610aa18382611398565b81600760008381526020019081526020016000209080519060200190610ac892919061177f565b50505050565b6000600560008473ffffffffffffffffffffffffffffffffffffffff1673ffffffffffffffffffffffffffffffffffffffff16815260200190815260200160002060008373ffffffffffffffffffffffffffffffffffffffff1673ffffffffffffffffffffffffffffffffffffffff16815260200190815260200160002060009054906101000a900460ff16905092915050565b60007f01ffc9a7000000000000000000000000000000000000000000000000000000007bffffffffffffffffffffffffffffffffffffffffffffffffffffffff1916827bffffffffffffffffffffffffffffffffffffffffffffffffffffffff1916149050919050565b60008073ffffffffffffffffffffffffffffffffffffffff166002600084815260200190815260200160002060009054906101000a900473ffffffffffffffffffffffffffffffffffffffff1673ffffffffffffffffffffffffffffffffffffffff1614159050919050565b600033905090565b816004600083815260200190815260200160002060006101000a81548173ffffffffffffffffffffffffffffffffffffffff021916908373ffffffffffffffffffffffffffffffffffffffff160217905550808273ffffffffffffffffffffffffffffffffffffffff16610cb383610764565b73ffffffffffffffffffffffffffffffffffffffff167f8c5be1e5ebec7d5bd14f71427d1e84f3dd0314c0f7b2291e5b200ac8c7c3b92560405160405180910390a45050565b6000610d0482610bcc565b610d43576040517f08c379a0000000000000000000000000000000000000000000000000000000008152600401610d3a90612413565b60405180910390fd5b6000610d4e83610764565b90508073ffffffffffffffffffffffffffffffffffffffff168473ffffffffffffffffffffffffffffffffffffffff161480610dbd57508373ffffffffffffffffffffffffffffffffffffffff16610da5846104a2565b73ffffffffffffffffffffffffffffffffffffffff16145b80610dce5750610dcd8185610ace565b5b91505092915050565b8273ffffffffffffffffffffffffffffffffffffffff16610df782610764565b73ffffffffffffffffffffffffffffffffffffffff1614610e4d576040517f08c379a0000000000000000000000000000000000000000000000000000000008152600401610e44906124a5565b60405180910390fd5b600073ffffffffffffffffffffffffffffffffffffffff168273ffffffffffffffffffffffffffffffffffffffff161415610ebd576040517f08c379a0000000000000000000000000000000000000000000000000000000008152600401610eb490612537565b60405180910390fd5b610ec88383836113b6565b610ed3600082610c40565b6001600360008573ffffffffffffffffffffffffffffffffffffffff1673ffffffffffffffffffffffffffffffffffffffff1681526020019081526020016000206000828254610f239190612586565b925050819055506001600360008473ffffffffffffffffffffffffffffffffffffffff1673ffffffffffffffffffffffffffffffffffffffff1681526020019081526020016000206000828254610f7a91906125ba565b92505081905550816002600083815260200190815260200160002060006101000a81548173ffffffffffffffffffffffffffffffffffffffff021916908373ffffffffffffffffffffffffffffffffffffffff160217905550808273ffffffffffffffffffffffffffffffffffffffff168473ffffffffffffffffffffffffffffffffffffffff167fddf252ad1be2c89b69c2b068fc378daa952ba7f163c4a11628f55a4df523b3ef60405160405180910390a4505050565b8173ffffffffffffffffffffffffffffffffffffffff168373ffffffffffffffffffffffffffffffffffffffff1614156110a2576040517f08c379a00000000000000000000000000000000000000000000000000000000081526004016110999061265c565b60405180910390fd5b80600560008573ffffffffffffffffffffffffffffffffffffffff1673ffffffffffffffffffffffffffffffffffffffff16815260200190815260200160002060008473ffffffffffffffffffffffffffffffffffffffff1673ffffffffffffffffffffffffffffffffffffffff16815260200190815260200160002060006101000a81548160ff0219169083151502179055508173ffffffffffffffffffffffffffffffffffffffff168373ffffffffffffffffffffffffffffffffffffffff167f17307eab39ab6107e8899845ad3d59bd9653f200f220920489ca2b5937696c318360405161119391906118d6565b60405180910390a3505050565b6111ab848484610dd7565b6111b7848484846113bb565b6111f6576040517f08c379a00000000000000000000000000000000000000000000000000000000081526004016111ed906126ee565b60405180910390fd5b50505050565b606060405180602001604052806000815250905090565b6060600082141561125b576040518060400160405280600181526020017f3000000000000000000000000000000000000000000000000000000000000000815250905061136f565b600082905060005b6000821461128d5780806112769061270e565b915050600a826112869190612786565b9150611263565b60008167ffffffffffffffff8111156112a9576112a8611bf7565b5b6040519080825280601f01601f1916602001820160405280156112db5781602001600182028036833780820191505090505b5090505b60008514611368576001826112f49190612586565b9150600a8561130391906127b7565b603061130f91906125ba565b60f81b818381518110611325576113246127e8565b5b60200101907effffffffffffffffffffffffffffffffffffffffffffffffffffffffffffff1916908160001a905350600a856113619190612786565b94506112df565b8093505050505b919050565b6001816000016000828254019250508190555050565b600081600001549050919050565b6113b2828260405180602001604052806000815250611543565b5050565b505050565b60006113dc8473ffffffffffffffffffffffffffffffffffffffff1661159e565b15611536578373ffffffffffffffffffffffffffffffffffffffff1663150b7a02611405610c38565b8786866040518563ffffffff1660e01b8152600401611427949392919061286c565b6020604051808303816000875af192505050801561146357506040513d601f19601f8201168201806040525081019061146091906128cd565b60015b6114e6573d8060008114611493576040519150601f19603f3d011682016040523d82523d6000602084013e611498565b606091505b506000815114156114de576040517f08c379a00000000000000000000000000000000000000000000000000000000081526004016114d5906126ee565b60405180910390fd5b805181602001fd5b63150b7a0260e01b7bffffffffffffffffffffffffffffffffffffffffffffffffffffffff1916817bffffffffffffffffffffffffffffffffffffffffffffffffffffffff19161491505061153b565b600190505b949350505050565b61154d83836115b1565b61155a60008484846113bb565b611599576040517f08c379a0000000000000000000000000000000000000000000000000000000008152600401611590906126ee565b60405180910390fd5b505050565b600080823b905060008111915050919050565b600073ffffffffffffffffffffffffffffffffffffffff168273ffffffffffffffffffffffffffffffffffffffff161415611621576040517f08c379a000000000000000000000000000000000000000000000000000000000815260040161161890612946565b60405180910390fd5b61162a81610bcc565b1561166a576040517f08c379a0000000000000000000000000000000000000000000000000000000008152600401611661906129b2565b60405180910390fd5b611676600083836113b6565b6001600360008473ffffffffffffffffffffffffffffffffffffffff1673ffffffffffffffffffffffffffffffffffffffff16815260200190815260200160002060008282546116c691906125ba565b92505081905550816002600083815260200190815260200160002060006101000a81548173ffffffffffffffffffffffffffffffffffffffff021916908373ffffffffffffffffffffffffffffffffffffffff160217905550808273ffffffffffffffffffffffffffffffffffffffff16600073ffffffffffffffffffffffffffffffffffffffff167fddf252ad1be2c89b69c2b068fc378daa952ba7f163c4a11628f55a4df523b3ef60405160405180910390a45050565b82805461178b90611f11565b90600052602060002090601f0160209004810192826117ad57600085556117f4565b82601f106117c657805160ff19168380011785556117f4565b828001600101855582156117f4579182015b828111156117f35782518255916020019190600101906117d8565b5b5090506118019190611805565b5090565b5b8082111561181e576000816000905550600101611806565b5090565b6000604051905090565b600080fd5b600080fd5b60007fffffffff0000000000000000000000000000000000000000000000000000000082169050919050565b61186b81611836565b811461187657600080fd5b50565b60008135905061188881611862565b92915050565b6000602082840312156118a4576118a361182c565b5b60006118b284828501611879565b91505092915050565b60008115159050919050565b6118d0816118bb565b82525050565b60006020820190506118eb60008301846118c7565b92915050565b600081519050919050565b600082825260208201905092915050565b60005b8381101561192b578082015181840152602081019050611910565b8381111561193a576000848401525b50505050565b6000601f19601f8301169050919050565b600061195c826118f1565b61196681856118fc565b935061197681856020860161190d565b61197f81611940565b840191505092915050565b600060208201905081810360008301526119a48184611951565b905092915050565b6000819050919050565b6119bf816119ac565b81146119ca57600080fd5b50565b6000813590506119dc816119b6565b92915050565b6000602082840312156119f8576119f761182c565b5b6000611a06848285016119cd565b91505092915050565b600073ffffffffffffffffffffffffffffffffffffffff82169050919050565b6000611a3a82611a0f565b9050919050565b611a4a81611a2f565b82525050565b6000602082019050611a656000830184611a41565b92915050565b611a7481611a2f565b8114611a7f57600080fd5b50565b600081359050611a9181611a6b565b92915050565b60008060408385031215611aae57611aad61182c565b5b6000611abc85828601611a82565b9250506020611acd858286016119cd565b9150509250929050565b600080600060608486031215611af057611aef61182c565b5b6000611afe86828701611a82565b9350506020611b0f86828701611a82565b9250506040611b20868287016119cd565b9150509250925092565b600060208284031215611b4057611b3f61182c565b5b6000611b4e84828501611a82565b91505092915050565b611b60816119ac565b82525050565b6000602082019050611b7b6000830184611b57565b92915050565b611b8a816118bb565b8114611b9557600080fd5b50565b600081359050611ba781611b81565b92915050565b60008060408385031215611bc457611bc361182c565b5b6000611bd285828601611a82565b9250506020611be385828601611b98565b9150509250929050565b600080fd5b600080fd5b7f4e487b7100000000000000000000000000000000000000000000000000000000600052604160045260246000fd5b611c2f82611940565b810181811067ffffffffffffffff82111715611c4e57611c4d611bf7565b5b80604052505050565b6000611c61611822565b9050611c6d8282611c26565b919050565b600067ffffffffffffffff821115611c8d57611c8c611bf7565b5b611c9682611940565b9050602081019050919050565b82818337600083830152505050565b6000611cc5611cc084611c72565b611c57565b905082815260208101848484011115611ce157611ce0611bf2565b5b611cec848285611ca3565b509392505050565b600082601f830112611d0957611d08611bed565b5b8135611d19848260208601611cb2565b91505092915050565b60008060008060808587031215611d3c57611d3b61182c565b5b6000611d4a87828801611a82565b9450506020611d5b87828801611a82565b9350506040611d6c878288016119cd565b925050606085013567ffffffffffffffff811115611d8d57611d8c611831565b5b611d9987828801611cf4565b91505092959194509250565b600067ffffffffffffffff821115611dc057611dbf611bf7565b5b611dc982611940565b9050602081019050919050565b6000611de9611de484611da5565b611c57565b905082815260208101848484011115611e0557611e04611bf2565b5b611e10848285611ca3565b509392505050565b600082601f830112611e2d57611e2c611bed565b5b8135611e3d848260208601611dd6565b91505092915050565b60008060408385031215611e5d57611e5c61182c565b5b6000611e6b85828601611a82565b925050602083013567ffffffffffffffff811115611e8c57611e8b611831565b5b611e9885828601611e18565b9150509250929050565b60008060408385031215611eb957611eb861182c565b5b6000611ec785828601611a82565b9250506020611ed885828601611a82565b9150509250929050565b7f4e487b7100000000000000000000000000000000000000000000000000000000600052602260045260246000fd5b60006002820490506001821680611f2957607f821691505b60208210811415611f3d57611f3c611ee2565b5b50919050565b7f4552433732313a20617070726f76656420717565727920666f72206e6f6e657860008201527f697374656e7420746f6b656e0000000000000000000000000000000000000000602082015250565b6000611f9f602c836118fc565b9150611faa82611f43565b604082019050919050565b60006020820190508181036000830152611fce81611f92565b9050919050565b7f4552433732313a20617070726f76616c20746f2063757272656e74206f776e6560008201527f7200000000000000000000000000000000000000000000000000000000000000602082015250565b60006120316021836118fc565b915061203c82611fd5565b604082019050919050565b6000602082019050818103600083015261206081612024565b9050919050565b7f4552433732313a20617070726f76652063616c6c6572206973206e6f74206f7760008201527f6e6572206e6f7220617070726f76656420666f7220616c6c0000000000000000602082015250565b60006120c36038836118fc565b91506120ce82612067565b604082019050919050565b600060208201905081810360008301526120f2816120b6565b9050919050565b7f4552433732313a207472616e736665722063616c6c6572206973206e6f74206f60008201527f776e6572206e6f7220617070726f766564000000000000000000000000000000602082015250565b60006121556031836118fc565b9150612160826120f9565b604082019050919050565b6000602082019050818103600083015261218481612148565b9050919050565b7f4552433732313a206f776e657220717565727920666f72206e6f6e657869737460008201527f656e7420746f6b656e0000000000000000000000000000000000000000000000602082015250565b60006121e76029836118fc565b91506121f28261218b565b604082019050919050565b60006020820190508181036000830152612216816121da565b9050919050565b7f4552433732313a2062616c616e636520717565727920666f7220746865207a6560008201527f726f206164647265737300000000000000000000000000000000000000000000602082015250565b6000612279602a836118fc565b91506122848261221d565b604082019050919050565b600060208201905081810360008301526122a88161226c565b9050919050565b7f4552433732314d657461646174613a2055524920717565727920666f72206e6f60008201527f6e6578697374656e7420746f6b656e0000000000000000000000000000000000602082015250565b600061230b602f836118fc565b9150612316826122af565b604082019050919050565b6000602082019050818103600083015261233a816122fe565b9050919050565b600081905092915050565b6000612357826118f1565b6123618185612341565b935061237181856020860161190d565b80840191505092915050565b6000612389828561234c565b9150612395828461234c565b91508190509392505050565b7f4552433732313a206f70657261746f7220717565727920666f72206e6f6e657860008201527f697374656e7420746f6b656e0000000000000000000000000000000000000000602082015250565b60006123fd602c836118fc565b9150612408826123a1565b604082019050919050565b6000602082019050818103600083015261242c816123f0565b9050919050565b7f4552433732313a207472616e73666572206f6620746f6b656e2074686174206960008201527f73206e6f74206f776e0000000000000000000000000000000000000000000000602082015250565b600061248f6029836118fc565b915061249a82612433565b604082019050919050565b600060208201905081810360008301526124be81612482565b9050919050565b7f4552433732313a207472616e7366657220746f20746865207a65726f2061646460008201527f7265737300000000000000000000000000000000000000000000000000000000602082015250565b60006125216024836118fc565b915061252c826124c5565b604082019050919050565b6000602082019050818103600083015261255081612514565b9050919050565b7f4e487b7100000000000000000000000000000000000000000000000000000000600052601160045260246000fd5b6000612591826119ac565b915061259c836119ac565b9250828210156125af576125ae612557565b5b828203905092915050565b60006125c5826119ac565b91506125d0836119ac565b9250827fffffffffffffffffffffffffffffffffffffffffffffffffffffffffffffffff0382111561260557612604612557565b5b828201905092915050565b7f4552433732313a20617070726f766520746f2063616c6c657200000000000000600082015250565b60006126466019836118fc565b915061265182612610565b602082019050919050565b6000602082019050818103600083015261267581612639565b9050919050565b7f4552433732313a207472616e7366657220746f206e6f6e20455243373231526560008201527f63656976657220696d706c656d656e7465720000000000000000000000000000602082015250565b60006126d86032836118fc565b91506126e38261267c565b604082019050919050565b60006020820190508181036000830152612707816126cb565b9050919050565b6000612719826119ac565b91507fffffffffffffffffffffffffffffffffffffffffffffffffffffffffffffffff82141561274c5761274b612557565b5b600182019050919050565b7f4e487b7100000000000000000000000000000000000000000000000000000000600052601260045260246000fd5b6000612791826119ac565b915061279c836119ac565b9250826127ac576127ab612757565b5b828204905092915050565b60006127c2826119ac565b91506127cd836119ac565b9250826127dd576127dc612757565b5b828206905092915050565b7f4e487b7100000000000000000000000000000000000000000000000000000000600052603260045260246000fd5b600081519050919050565b600082825260208201905092915050565b600061283e82612817565b6128488185612822565b935061285881856020860161190d565b61286181611940565b840191505092915050565b60006080820190506128816000830187611a41565b61288e6020830186611a41565b61289b6040830185611b57565b81810360608301526128ad8184612833565b905095945050505050565b6000815190506128c781611862565b92915050565b6000602082840312156128e3576128e261182c565b5b60006128f1848285016128b8565b91505092915050565b7f4552433732313a206d696e7420746f20746865207a65726f2061646472657373600082015250565b60006129306020836118fc565b915061293b826128fa565b602082019050919050565b6000602082019050818103600083015261295f81612923565b9050919050565b7f4552433732313a20746f6b656e20616c7265616479206d696e74656400000000600082015250565b600061299c601c836118fc565b91506129a782612966565b602082019050919050565b600060208201905081810360008301526129cb8161298f565b905091905056fea2646970667358221220a510218cb035ed2676ad8d6ab3f0cc678df90d67f240fd32608c578749d4194a64736f6c634300080a0033",
  "immutableReferences": {},
  "source": "// SPDX-License-Identifier: MIT\npragma solidity <= 9.0.0;\n\nimport \"@openzeppelin/contracts/token/ERC721/ERC721.sol\";\nimport \"@openzeppelin/contracts/token/ERC721/extensions/ERC721URIStorage.sol\";\nimport \"@openzeppelin/contracts/utils/Counters.sol\";\n\n/**\n * TODO:\n *  - Read ERC721 to understand how the NFT precisely works\n *      https://github.com/OpenZeppelin/openzeppelin-contracts/blob/master/contracts/token/ERC721/ERC721.sol\n *  - To call all functions of ERC721\n */\ncontract NFT is ERC721 {\n\n    using Counters for Counters.Counter;\n    Counters.Counter private _tokenIds;\n    mapping(uint256 => string) private _tokenURIs;\n\n    constructor(\n        string memory name,\n        string memory symbol\n    )\n    ERC721(name, symbol)\n    {\n    }\n\n    function mint(address owner, string memory uri) public {\n        _tokenIds.increment();\n\n        uint256 id = _tokenIds.current();\n        _safeMint(owner, id);\n        _tokenURIs[id] = uri;\n    }\n\n    function getURI(uint256 tokenId) public view returns(string memory) {\n        return _tokenURIs[tokenId];\n    }\n}",
  "sourcePath": "/home/l.gicquel/NFT/solidity/contracts/NFT.sol",
  "compiler": {
    "name": "solc",
    "version": "0.8.10+commit.fc410830.Emscripten.clang"
  },
  "schemaVersion": "3.4.4",
  "updatedAt": "2022-01-12T17:05:09.717Z",
  "networkType": "ethereum",
  "devdoc": {
    "kind": "dev",
    "methods": {
      "approve(address,uint256)": {
        "details": "See {IERC721-approve}."
      },
      "balanceOf(address)": {
        "details": "See {IERC721-balanceOf}."
      },
      "getApproved(uint256)": {
        "details": "See {IERC721-getApproved}."
      },
      "isApprovedForAll(address,address)": {
        "details": "See {IERC721-isApprovedForAll}."
      },
      "name()": {
        "details": "See {IERC721Metadata-name}."
      },
      "ownerOf(uint256)": {
        "details": "See {IERC721-ownerOf}."
      },
      "safeTransferFrom(address,address,uint256)": {
        "details": "See {IERC721-safeTransferFrom}."
      },
      "safeTransferFrom(address,address,uint256,bytes)": {
        "details": "See {IERC721-safeTransferFrom}."
      },
      "setApprovalForAll(address,bool)": {
        "details": "See {IERC721-setApprovalForAll}."
      },
      "supportsInterface(bytes4)": {
        "details": "See {IERC165-supportsInterface}."
      },
      "symbol()": {
        "details": "See {IERC721Metadata-symbol}."
      },
      "tokenURI(uint256)": {
        "details": "See {IERC721Metadata-tokenURI}."
      },
      "transferFrom(address,address,uint256)": {
        "details": "See {IERC721-transferFrom}."
      }
    },
    "version": 1
  },
  "userdoc": {
    "kind": "user",
    "methods": {},
    "notice": "TODO:  - Read ERC721 to understand how the NFT precisely works      https://github.com/OpenZeppelin/openzeppelin-contracts/blob/master/contracts/token/ERC721/ERC721.sol  - To call all functions of ERC721",
    "version": 1
  }
}