{
  "contractName": "NFT",
  "abi": [
    {
      "inputs": [
        {
          "internalType": "string",
          "name": "name",
          "type": "string"
        },
        {
          "internalType": "string",
          "name": "symbol",
          "type": "string"
        }
      ],
      "stateMutability": "nonpayable",
      "type": "constructor"
    },
    {
      "anonymous": false,
      "inputs": [
        {
          "indexed": true,
          "internalType": "address",
          "name": "owner",
          "type": "address"
        },
        {
          "indexed": true,
          "internalType": "address",
          "name": "approved",
          "type": "address"
        },
        {
          "indexed": true,
          "internalType": "uint256",
          "name": "tokenId",
          "type": "uint256"
        }
      ],
      "name": "Approval",
      "type": "event"
    },
    {
      "anonymous": false,
      "inputs": [
        {
          "indexed": true,
          "internalType": "address",
          "name": "owner",
          "type": "address"
        },
        {
          "indexed": true,
          "internalType": "address",
          "name": "operator",
          "type": "address"
        },
        {
          "indexed": false,
          "internalType": "bool",
          "name": "approved",
          "type": "bool"
        }
      ],
      "name": "ApprovalForAll",
      "type": "event"
    },
    {
      "anonymous": false,
      "inputs": [
        {
          "indexed": true,
          "internalType": "address",
          "name": "from",
          "type": "address"
        },
        {
          "indexed": true,
          "internalType": "address",
          "name": "to",
          "type": "address"
        },
        {
          "indexed": true,
          "internalType": "uint256",
          "name": "tokenId",
          "type": "uint256"
        }
      ],
      "name": "Transfer",
      "type": "event"
    },
    {
      "inputs": [
        {
          "internalType": "address",
          "name": "to",
          "type": "address"
        },
        {
          "internalType": "uint256",
          "name": "tokenId",
          "type": "uint256"
        }
      ],
      "name": "approve",
      "outputs": [],
      "stateMutability": "nonpayable",
      "type": "function"
    },
    {
      "inputs": [
        {
          "internalType": "address",
          "name": "owner",
          "type": "address"
        }
      ],
      "name": "balanceOf",
      "outputs": [
        {
          "internalType": "uint256",
          "name": "",
          "type": "uint256"
        }
      ],
      "stateMutability": "view",
      "type": "function",
      "constant": true
    },
    {
      "inputs": [
        {
          "internalType": "uint256",
          "name": "tokenId",
          "type": "uint256"
        }
      ],
      "name": "getApproved",
      "outputs": [
        {
          "internalType": "address",
          "name": "",
          "type": "address"
        }
      ],
      "stateMutability": "view",
      "type": "function",
      "constant": true
    },
    {
      "inputs": [
        {
          "internalType": "address",
          "name": "owner",
          "type": "address"
        },
        {
          "internalType": "address",
          "name": "operator",
          "type": "address"
        }
      ],
      "name": "isApprovedForAll",
      "outputs": [
        {
          "internalType": "bool",
          "name": "",
          "type": "bool"
        }
      ],
      "stateMutability": "view",
      "type": "function",
      "constant": true
    },
    {
      "inputs": [],
      "name": "name",
      "outputs": [
        {
          "internalType": "string",
          "name": "",
          "type": "string"
        }
      ],
      "stateMutability": "view",
      "type": "function",
      "constant": true
    },
    {
      "inputs": [
        {
          "internalType": "uint256",
          "name": "tokenId",
          "type": "uint256"
        }
      ],
      "name": "ownerOf",
      "outputs": [
        {
          "internalType": "address",
          "name": "",
          "type": "address"
        }
      ],
      "stateMutability": "view",
      "type": "function",
      "constant": true
    },
    {
      "inputs": [
        {
          "internalType": "address",
          "name": "from",
          "type": "address"
        },
        {
          "internalType": "address",
          "name": "to",
          "type": "address"
        },
        {
          "internalType": "uint256",
          "name": "tokenId",
          "type": "uint256"
        }
      ],
      "name": "safeTransferFrom",
      "outputs": [],
      "stateMutability": "nonpayable",
      "type": "function"
    },
    {
      "inputs": [
        {
          "internalType": "address",
          "name": "from",
          "type": "address"
        },
        {
          "internalType": "address",
          "name": "to",
          "type": "address"
        },
        {
          "internalType": "uint256",
          "name": "tokenId",
          "type": "uint256"
        },
        {
          "internalType": "bytes",
          "name": "_data",
          "type": "bytes"
        }
      ],
      "name": "safeTransferFrom",
      "outputs": [],
      "stateMutability": "nonpayable",
      "type": "function"
    },
    {
      "inputs": [
        {
          "internalType": "address",
          "name": "operator",
          "type": "address"
        },
        {
          "internalType": "bool",
          "name": "approved",
          "type": "bool"
        }
      ],
      "name": "setApprovalForAll",
      "outputs": [],
      "stateMutability": "nonpayable",
      "type": "function"
    },
    {
      "inputs": [
        {
          "internalType": "bytes4",
          "name": "interfaceId",
          "type": "bytes4"
        }
      ],
      "name": "supportsInterface",
      "outputs": [
        {
          "internalType": "bool",
          "name": "",
          "type": "bool"
        }
      ],
      "stateMutability": "view",
      "type": "function",
      "constant": true
    },
    {
      "inputs": [],
      "name": "symbol",
      "outputs": [
        {
          "internalType": "string",
          "name": "",
          "type": "string"
        }
      ],
      "stateMutability": "view",
      "type": "function",
      "constant": true
    },
    {
      "inputs": [
        {
          "internalType": "uint256",
          "name": "tokenId",
          "type": "uint256"
        }
      ],
      "name": "tokenURI",
      "outputs": [
        {
          "internalType": "string",
          "name": "",
          "type": "string"
        }
      ],
      "stateMutability": "view",
      "type": "function",
      "constant": true
    },
    {
      "inputs": [
        {
          "internalType": "address",
          "name": "from",
          "type": "address"
        },
        {
          "internalType": "address",
          "name": "to",
          "type": "address"
        },
        {
          "internalType": "uint256",
          "name": "tokenId",
          "type": "uint256"
        }
      ],
      "name": "transferFrom",
      "outputs": [],
      "stateMutability": "nonpayable",
      "type": "function"
    },
    {
      "inputs": [
        {
          "internalType": "address",
          "name": "owner",
          "type": "address"
        },
        {
          "internalType": "string",
          "name": "uri",
          "type": "string"
        }
      ],
      "name": "mint",
      "outputs": [],
      "stateMutability": "nonpayable",
      "type": "function"
    },
    {
      "inputs": [
        {
          "internalType": "uint256",
          "name": "tokenId",
          "type": "uint256"
        }
      ],
      "name": "getURI",
      "outputs": [
        {
          "internalType": "string",
          "name": "",
          "type": "string"
        }
      ],
      "stateMutability": "view",
      "type": "function",
      "constant": true
    }
  ],
  "bytecode": "0x60806040523480156200001157600080fd5b5060405162002fba38038062002fba8339818101604052810190620000379190620002c2565b818181600090805190602001906200005192919062000075565b5080600190805190602001906200006a92919062000075565b5050505050620003ac565b828054620000839062000376565b90600052602060002090601f016020900481019282620000a75760008555620000f3565b82601f10620000c257805160ff1916838001178555620000f3565b82800160010185558215620000f3579182015b82811115620000f2578251825591602001919060010190620000d5565b5b50905062000102919062000106565b5090565b5b808211156200012157600081600090555060010162000107565b5090565b6000604051905090565b600080fd5b600080fd5b600080fd5b600080fd5b6000601f19601f8301169050919050565b7f4e487b7100000000000000000000000000000000000000000000000000000000600052604160045260246000fd5b6200018e8262000143565b810181811067ffffffffffffffff82111715620001b057620001af62000154565b5b80604052505050565b6000620001c562000125565b9050620001d3828262000183565b919050565b600067ffffffffffffffff821115620001f657620001f562000154565b5b620002018262000143565b9050602081019050919050565b60005b838110156200022e57808201518184015260208101905062000211565b838111156200023e576000848401525b50505050565b60006200025b6200025584620001d8565b620001b9565b9050828152602081018484840111156200027a57620002796200013e565b5b620002878482856200020e565b509392505050565b600082601f830112620002a757620002a662000139565b5b8151620002b984826020860162000244565b91505092915050565b60008060408385031215620002dc57620002db6200012f565b5b600083015167ffffffffffffffff811115620002fd57620002fc62000134565b5b6200030b858286016200028f565b925050602083015167ffffffffffffffff8111156200032f576200032e62000134565b5b6200033d858286016200028f565b9150509250929050565b7f4e487b7100000000000000000000000000000000000000000000000000000000600052602260045260246000fd5b600060028204905060018216806200038f57607f821691505b60208210811415620003a657620003a562000347565b5b50919050565b612bfe80620003bc6000396000f3fe608060405234801561001057600080fd5b50600436106100f55760003560e01c80636352211e11610097578063b88d4fde11610066578063b88d4fde14610296578063c87b56dd146102b2578063d0def521146102e2578063e985e9c5146102fe576100f5565b80636352211e146101fc57806370a082311461022c57806395d89b411461025c578063a22cb4651461027a576100f5565b8063095ea7b3116100d3578063095ea7b3146101785780631aa347dc1461019457806323b872dd146101c457806342842e0e146101e0576100f5565b806301ffc9a7146100fa57806306fdde031461012a578063081812fc14610148575b600080fd5b610114600480360381019061010f91906119db565b61032e565b6040516101219190611a23565b60405180910390f35b610132610410565b60405161013f9190611ad7565b60405180910390f35b610162600480360381019061015d9190611b2f565b6104a2565b60405161016f9190611b9d565b60405180910390f35b610192600480360381019061018d9190611be4565b610527565b005b6101ae60048036038101906101a99190611b2f565b61063f565b6040516101bb9190611ad7565b60405180910390f35b6101de60048036038101906101d99190611c24565b6107d8565b005b6101fa60048036038101906101f59190611c24565b610838565b005b61021660048036038101906102119190611b2f565b610858565b6040516102239190611b9d565b60405180910390f35b61024660048036038101906102419190611c77565b61090a565b6040516102539190611cb3565b60405180910390f35b6102646109c2565b6040516102719190611ad7565b60405180910390f35b610294600480360381019061028f9190611cfa565b610a54565b005b6102b060048036038101906102ab9190611e6f565b610a6a565b005b6102cc60048036038101906102c79190611b2f565b610acc565b6040516102d99190611ad7565b60405180910390f35b6102fc60048036038101906102f79190611f93565b610b73565b005b61031860048036038101906103139190611fef565b610bc2565b6040516103259190611a23565b60405180910390f35b60007f80ac58cd000000000000000000000000000000000000000000000000000000007bffffffffffffffffffffffffffffffffffffffffffffffffffffffff1916827bffffffffffffffffffffffffffffffffffffffffffffffffffffffff191614806103f957507f5b5e139f000000000000000000000000000000000000000000000000000000007bffffffffffffffffffffffffffffffffffffffffffffffffffffffff1916827bffffffffffffffffffffffffffffffffffffffffffffffffffffffff1916145b80610409575061040882610c56565b5b9050919050565b60606000805461041f9061205e565b80601f016020809104026020016040519081016040528092919081815260200182805461044b9061205e565b80156104985780601f1061046d57610100808354040283529160200191610498565b820191906000526020600020905b81548152906001019060200180831161047b57829003601f168201915b5050505050905090565b60006104ad82610cc0565b6104ec576040517f08c379a00000000000000000000000000000000000000000000000000000000081526004016104e390612102565b60405180910390fd5b6004600083815260200190815260200160002060009054906101000a900473ffffffffffffffffffffffffffffffffffffffff169050919050565b600061053282610858565b90508073ffffffffffffffffffffffffffffffffffffffff168373ffffffffffffffffffffffffffffffffffffffff1614156105a3576040517f08c379a000000000000000000000000000000000000000000000000000000000815260040161059a90612194565b60405180910390fd5b8073ffffffffffffffffffffffffffffffffffffffff166105c2610d2c565b73ffffffffffffffffffffffffffffffffffffffff1614806105f157506105f0816105eb610d2c565b610bc2565b5b610630576040517f08c379a000000000000000000000000000000000000000000000000000000000815260040161062790612226565b60405180910390fd5b61063a8383610d34565b505050565b60606106f56007600084815260200190815260200160002080546106629061205e565b80601f016020809104026020016040519081016040528092919081815260200182805461068e9061205e565b80156106db5780601f106106b0576101008083540402835291602001916106db565b820191906000526020600020905b8154815290600101906020018083116106be57829003601f168201915b505050505060405180602001604052806000815250610ded565b15610735576040517f08c379a000000000000000000000000000000000000000000000000000000000815260040161072c906122b8565b60405180910390fd5b6007600083815260200190815260200160002080546107539061205e565b80601f016020809104026020016040519081016040528092919081815260200182805461077f9061205e565b80156107cc5780601f106107a1576101008083540402835291602001916107cc565b820191906000526020600020905b8154815290600101906020018083116107af57829003601f168201915b50505050509050919050565b6107e96107e3610d2c565b82610e46565b610828576040517f08c379a000000000000000000000000000000000000000000000000000000000815260040161081f9061234a565b60405180910390fd5b610833838383610f24565b505050565b61085383838360405180602001604052806000815250610a6a565b505050565b6000806002600084815260200190815260200160002060009054906101000a900473ffffffffffffffffffffffffffffffffffffffff169050600073ffffffffffffffffffffffffffffffffffffffff168173ffffffffffffffffffffffffffffffffffffffff161415610901576040517f08c379a00000000000000000000000000000000000000000000000000000000081526004016108f8906123dc565b60405180910390fd5b80915050919050565b60008073ffffffffffffffffffffffffffffffffffffffff168273ffffffffffffffffffffffffffffffffffffffff16141561097b576040517f08c379a00000000000000000000000000000000000000000000000000000000081526004016109729061246e565b60405180910390fd5b600360008373ffffffffffffffffffffffffffffffffffffffff1673ffffffffffffffffffffffffffffffffffffffff168152602001908152602001600020549050919050565b6060600180546109d19061205e565b80601f01602080910402602001604051908101604052809291908181526020018280546109fd9061205e565b8015610a4a5780601f10610a1f57610100808354040283529160200191610a4a565b820191906000526020600020905b815481529060010190602001808311610a2d57829003601f168201915b5050505050905090565b610a66610a5f610d2c565b8383611180565b5050565b610a7b610a75610d2c565b83610e46565b610aba576040517f08c379a0000000000000000000000000000000000000000000000000000000008152600401610ab19061234a565b60405180910390fd5b610ac6848484846112ed565b50505050565b6060610ad782610cc0565b610b16576040517f08c379a0000000000000000000000000000000000000000000000000000000008152600401610b0d90612500565b60405180910390fd5b6000610b20611349565b90506000815111610b405760405180602001604052806000815250610b6b565b80610b4a84611360565b604051602001610b5b92919061255c565b6040516020818303038152906040525b915050919050565b610b7d60066114c1565b6000610b8960066114d7565b9050610b9583826114e5565b81600760008381526020019081526020016000209080519060200190610bbc9291906118cc565b50505050565b6000600560008473ffffffffffffffffffffffffffffffffffffffff1673ffffffffffffffffffffffffffffffffffffffff16815260200190815260200160002060008373ffffffffffffffffffffffffffffffffffffffff1673ffffffffffffffffffffffffffffffffffffffff16815260200190815260200160002060009054906101000a900460ff16905092915050565b60007f01ffc9a7000000000000000000000000000000000000000000000000000000007bffffffffffffffffffffffffffffffffffffffffffffffffffffffff1916827bffffffffffffffffffffffffffffffffffffffffffffffffffffffff1916149050919050565b60008073ffffffffffffffffffffffffffffffffffffffff166002600084815260200190815260200160002060009054906101000a900473ffffffffffffffffffffffffffffffffffffffff1673ffffffffffffffffffffffffffffffffffffffff1614159050919050565b600033905090565b816004600083815260200190815260200160002060006101000a81548173ffffffffffffffffffffffffffffffffffffffff021916908373ffffffffffffffffffffffffffffffffffffffff160217905550808273ffffffffffffffffffffffffffffffffffffffff16610da783610858565b73ffffffffffffffffffffffffffffffffffffffff167f8c5be1e5ebec7d5bd14f71427d1e84f3dd0314c0f7b2291e5b200ac8c7c3b92560405160405180910390a45050565b600081604051602001610e009190612580565b6040516020818303038152906040528051906020012083604051602001610e279190612580565b6040516020818303038152906040528051906020012014905092915050565b6000610e5182610cc0565b610e90576040517f08c379a0000000000000000000000000000000000000000000000000000000008152600401610e8790612609565b60405180910390fd5b6000610e9b83610858565b90508073ffffffffffffffffffffffffffffffffffffffff168473ffffffffffffffffffffffffffffffffffffffff161480610f0a57508373ffffffffffffffffffffffffffffffffffffffff16610ef2846104a2565b73ffffffffffffffffffffffffffffffffffffffff16145b80610f1b5750610f1a8185610bc2565b5b91505092915050565b8273ffffffffffffffffffffffffffffffffffffffff16610f4482610858565b73ffffffffffffffffffffffffffffffffffffffff1614610f9a576040517f08c379a0000000000000000000000000000000000000000000000000000000008152600401610f919061269b565b60405180910390fd5b600073ffffffffffffffffffffffffffffffffffffffff168273ffffffffffffffffffffffffffffffffffffffff16141561100a576040517f08c379a00000000000000000000000000000000000000000000000000000000081526004016110019061272d565b60405180910390fd5b611015838383611503565b611020600082610d34565b6001600360008573ffffffffffffffffffffffffffffffffffffffff1673ffffffffffffffffffffffffffffffffffffffff1681526020019081526020016000206000828254611070919061277c565b925050819055506001600360008473ffffffffffffffffffffffffffffffffffffffff1673ffffffffffffffffffffffffffffffffffffffff16815260200190815260200160002060008282546110c791906127b0565b92505081905550816002600083815260200190815260200160002060006101000a81548173ffffffffffffffffffffffffffffffffffffffff021916908373ffffffffffffffffffffffffffffffffffffffff160217905550808273ffffffffffffffffffffffffffffffffffffffff168473ffffffffffffffffffffffffffffffffffffffff167fddf252ad1be2c89b69c2b068fc378daa952ba7f163c4a11628f55a4df523b3ef60405160405180910390a4505050565b8173ffffffffffffffffffffffffffffffffffffffff168373ffffffffffffffffffffffffffffffffffffffff1614156111ef576040517f08c379a00000000000000000000000000000000000000000000000000000000081526004016111e690612852565b60405180910390fd5b80600560008573ffffffffffffffffffffffffffffffffffffffff1673ffffffffffffffffffffffffffffffffffffffff16815260200190815260200160002060008473ffffffffffffffffffffffffffffffffffffffff1673ffffffffffffffffffffffffffffffffffffffff16815260200190815260200160002060006101000a81548160ff0219169083151502179055508173ffffffffffffffffffffffffffffffffffffffff168373ffffffffffffffffffffffffffffffffffffffff167f17307eab39ab6107e8899845ad3d59bd9653f200f220920489ca2b5937696c31836040516112e09190611a23565b60405180910390a3505050565b6112f8848484610f24565b61130484848484611508565b611343576040517f08c379a000000000000000000000000000000000000000000000000000000000815260040161133a906128e4565b60405180910390fd5b50505050565b606060405180602001604052806000815250905090565b606060008214156113a8576040518060400160405280600181526020017f300000000000000000000000000000000000000000000000000000000000000081525090506114bc565b600082905060005b600082146113da5780806113c390612904565b915050600a826113d3919061297c565b91506113b0565b60008167ffffffffffffffff8111156113f6576113f5611d44565b5b6040519080825280601f01601f1916602001820160405280156114285781602001600182028036833780820191505090505b5090505b600085146114b557600182611441919061277c565b9150600a8561145091906129ad565b603061145c91906127b0565b60f81b818381518110611472576114716129de565b5b60200101907effffffffffffffffffffffffffffffffffffffffffffffffffffffffffffff1916908160001a905350600a856114ae919061297c565b945061142c565b8093505050505b919050565b6001816000016000828254019250508190555050565b600081600001549050919050565b6114ff828260405180602001604052806000815250611690565b5050565b505050565b60006115298473ffffffffffffffffffffffffffffffffffffffff166116eb565b15611683578373ffffffffffffffffffffffffffffffffffffffff1663150b7a02611552610d2c565b8786866040518563ffffffff1660e01b81526004016115749493929190612a62565b6020604051808303816000875af19250505080156115b057506040513d601f19601f820116820180604052508101906115ad9190612ac3565b60015b611633573d80600081146115e0576040519150601f19603f3d011682016040523d82523d6000602084013e6115e5565b606091505b5060008151141561162b576040517f08c379a0000000000000000000000000000000000000000000000000000000008152600401611622906128e4565b60405180910390fd5b805181602001fd5b63150b7a0260e01b7bffffffffffffffffffffffffffffffffffffffffffffffffffffffff1916817bffffffffffffffffffffffffffffffffffffffffffffffffffffffff191614915050611688565b600190505b949350505050565b61169a83836116fe565b6116a76000848484611508565b6116e6576040517f08c379a00000000000000000000000000000000000000000000000000000000081526004016116dd906128e4565b60405180910390fd5b505050565b600080823b905060008111915050919050565b600073ffffffffffffffffffffffffffffffffffffffff168273ffffffffffffffffffffffffffffffffffffffff16141561176e576040517f08c379a000000000000000000000000000000000000000000000000000000000815260040161176590612b3c565b60405180910390fd5b61177781610cc0565b156117b7576040517f08c379a00000000000000000000000000000000000000000000000000000000081526004016117ae90612ba8565b60405180910390fd5b6117c360008383611503565b6001600360008473ffffffffffffffffffffffffffffffffffffffff1673ffffffffffffffffffffffffffffffffffffffff168152602001908152602001600020600082825461181391906127b0565b92505081905550816002600083815260200190815260200160002060006101000a81548173ffffffffffffffffffffffffffffffffffffffff021916908373ffffffffffffffffffffffffffffffffffffffff160217905550808273ffffffffffffffffffffffffffffffffffffffff16600073ffffffffffffffffffffffffffffffffffffffff167fddf252ad1be2c89b69c2b068fc378daa952ba7f163c4a11628f55a4df523b3ef60405160405180910390a45050565b8280546118d89061205e565b90600052602060002090601f0160209004810192826118fa5760008555611941565b82601f1061191357805160ff1916838001178555611941565b82800160010185558215611941579182015b82811115611940578251825591602001919060010190611925565b5b50905061194e9190611952565b5090565b5b8082111561196b576000816000905550600101611953565b5090565b6000604051905090565b600080fd5b600080fd5b60007fffffffff0000000000000000000000000000000000000000000000000000000082169050919050565b6119b881611983565b81146119c357600080fd5b50565b6000813590506119d5816119af565b92915050565b6000602082840312156119f1576119f0611979565b5b60006119ff848285016119c6565b91505092915050565b60008115159050919050565b611a1d81611a08565b82525050565b6000602082019050611a386000830184611a14565b92915050565b600081519050919050565b600082825260208201905092915050565b60005b83811015611a78578082015181840152602081019050611a5d565b83811115611a87576000848401525b50505050565b6000601f19601f8301169050919050565b6000611aa982611a3e565b611ab38185611a49565b9350611ac3818560208601611a5a565b611acc81611a8d565b840191505092915050565b60006020820190508181036000830152611af18184611a9e565b905092915050565b6000819050919050565b611b0c81611af9565b8114611b1757600080fd5b50565b600081359050611b2981611b03565b92915050565b600060208284031215611b4557611b44611979565b5b6000611b5384828501611b1a565b91505092915050565b600073ffffffffffffffffffffffffffffffffffffffff82169050919050565b6000611b8782611b5c565b9050919050565b611b9781611b7c565b82525050565b6000602082019050611bb26000830184611b8e565b92915050565b611bc181611b7c565b8114611bcc57600080fd5b50565b600081359050611bde81611bb8565b92915050565b60008060408385031215611bfb57611bfa611979565b5b6000611c0985828601611bcf565b9250506020611c1a85828601611b1a565b9150509250929050565b600080600060608486031215611c3d57611c3c611979565b5b6000611c4b86828701611bcf565b9350506020611c5c86828701611bcf565b9250506040611c6d86828701611b1a565b9150509250925092565b600060208284031215611c8d57611c8c611979565b5b6000611c9b84828501611bcf565b91505092915050565b611cad81611af9565b82525050565b6000602082019050611cc86000830184611ca4565b92915050565b611cd781611a08565b8114611ce257600080fd5b50565b600081359050611cf481611cce565b92915050565b60008060408385031215611d1157611d10611979565b5b6000611d1f85828601611bcf565b9250506020611d3085828601611ce5565b9150509250929050565b600080fd5b600080fd5b7f4e487b7100000000000000000000000000000000000000000000000000000000600052604160045260246000fd5b611d7c82611a8d565b810181811067ffffffffffffffff82111715611d9b57611d9a611d44565b5b80604052505050565b6000611dae61196f565b9050611dba8282611d73565b919050565b600067ffffffffffffffff821115611dda57611dd9611d44565b5b611de382611a8d565b9050602081019050919050565b82818337600083830152505050565b6000611e12611e0d84611dbf565b611da4565b905082815260208101848484011115611e2e57611e2d611d3f565b5b611e39848285611df0565b509392505050565b600082601f830112611e5657611e55611d3a565b5b8135611e66848260208601611dff565b91505092915050565b60008060008060808587031215611e8957611e88611979565b5b6000611e9787828801611bcf565b9450506020611ea887828801611bcf565b9350506040611eb987828801611b1a565b925050606085013567ffffffffffffffff811115611eda57611ed961197e565b5b611ee687828801611e41565b91505092959194509250565b600067ffffffffffffffff821115611f0d57611f0c611d44565b5b611f1682611a8d565b9050602081019050919050565b6000611f36611f3184611ef2565b611da4565b905082815260208101848484011115611f5257611f51611d3f565b5b611f5d848285611df0565b509392505050565b600082601f830112611f7a57611f79611d3a565b5b8135611f8a848260208601611f23565b91505092915050565b60008060408385031215611faa57611fa9611979565b5b6000611fb885828601611bcf565b925050602083013567ffffffffffffffff811115611fd957611fd861197e565b5b611fe585828601611f65565b9150509250929050565b6000806040838503121561200657612005611979565b5b600061201485828601611bcf565b925050602061202585828601611bcf565b9150509250929050565b7f4e487b7100000000000000000000000000000000000000000000000000000000600052602260045260246000fd5b6000600282049050600182168061207657607f821691505b6020821081141561208a5761208961202f565b5b50919050565b7f4552433732313a20617070726f76656420717565727920666f72206e6f6e657860008201527f697374656e7420746f6b656e0000000000000000000000000000000000000000602082015250565b60006120ec602c83611a49565b91506120f782612090565b604082019050919050565b6000602082019050818103600083015261211b816120df565b9050919050565b7f4552433732313a20617070726f76616c20746f2063757272656e74206f776e6560008201527f7200000000000000000000000000000000000000000000000000000000000000602082015250565b600061217e602183611a49565b915061218982612122565b604082019050919050565b600060208201905081810360008301526121ad81612171565b9050919050565b7f4552433732313a20617070726f76652063616c6c6572206973206e6f74206f7760008201527f6e6572206e6f7220617070726f76656420666f7220616c6c0000000000000000602082015250565b6000612210603883611a49565b915061221b826121b4565b604082019050919050565b6000602082019050818103600083015261223f81612203565b9050919050565b7f5365617263682055524920666f7220616e20696e6578697374616e7420746f6b60008201527f656e000000000000000000000000000000000000000000000000000000000000602082015250565b60006122a2602283611a49565b91506122ad82612246565b604082019050919050565b600060208201905081810360008301526122d181612295565b9050919050565b7f4552433732313a207472616e736665722063616c6c6572206973206e6f74206f60008201527f776e6572206e6f7220617070726f766564000000000000000000000000000000602082015250565b6000612334603183611a49565b915061233f826122d8565b604082019050919050565b6000602082019050818103600083015261236381612327565b9050919050565b7f4552433732313a206f776e657220717565727920666f72206e6f6e657869737460008201527f656e7420746f6b656e0000000000000000000000000000000000000000000000602082015250565b60006123c6602983611a49565b91506123d18261236a565b604082019050919050565b600060208201905081810360008301526123f5816123b9565b9050919050565b7f4552433732313a2062616c616e636520717565727920666f7220746865207a6560008201527f726f206164647265737300000000000000000000000000000000000000000000602082015250565b6000612458602a83611a49565b9150612463826123fc565b604082019050919050565b600060208201905081810360008301526124878161244b565b9050919050565b7f4552433732314d657461646174613a2055524920717565727920666f72206e6f60008201527f6e6578697374656e7420746f6b656e0000000000000000000000000000000000602082015250565b60006124ea602f83611a49565b91506124f58261248e565b604082019050919050565b60006020820190508181036000830152612519816124dd565b9050919050565b600081905092915050565b600061253682611a3e565b6125408185612520565b9350612550818560208601611a5a565b80840191505092915050565b6000612568828561252b565b9150612574828461252b565b91508190509392505050565b600061258c828461252b565b915081905092915050565b7f4552433732313a206f70657261746f7220717565727920666f72206e6f6e657860008201527f697374656e7420746f6b656e0000000000000000000000000000000000000000602082015250565b60006125f3602c83611a49565b91506125fe82612597565b604082019050919050565b60006020820190508181036000830152612622816125e6565b9050919050565b7f4552433732313a207472616e73666572206f6620746f6b656e2074686174206960008201527f73206e6f74206f776e0000000000000000000000000000000000000000000000602082015250565b6000612685602983611a49565b915061269082612629565b604082019050919050565b600060208201905081810360008301526126b481612678565b9050919050565b7f4552433732313a207472616e7366657220746f20746865207a65726f2061646460008201527f7265737300000000000000000000000000000000000000000000000000000000602082015250565b6000612717602483611a49565b9150612722826126bb565b604082019050919050565b600060208201905081810360008301526127468161270a565b9050919050565b7f4e487b7100000000000000000000000000000000000000000000000000000000600052601160045260246000fd5b600061278782611af9565b915061279283611af9565b9250828210156127a5576127a461274d565b5b828203905092915050565b60006127bb82611af9565b91506127c683611af9565b9250827fffffffffffffffffffffffffffffffffffffffffffffffffffffffffffffffff038211156127fb576127fa61274d565b5b828201905092915050565b7f4552433732313a20617070726f766520746f2063616c6c657200000000000000600082015250565b600061283c601983611a49565b915061284782612806565b602082019050919050565b6000602082019050818103600083015261286b8161282f565b9050919050565b7f4552433732313a207472616e7366657220746f206e6f6e20455243373231526560008201527f63656976657220696d706c656d656e7465720000000000000000000000000000602082015250565b60006128ce603283611a49565b91506128d982612872565b604082019050919050565b600060208201905081810360008301526128fd816128c1565b9050919050565b600061290f82611af9565b91507fffffffffffffffffffffffffffffffffffffffffffffffffffffffffffffffff8214156129425761294161274d565b5b600182019050919050565b7f4e487b7100000000000000000000000000000000000000000000000000000000600052601260045260246000fd5b600061298782611af9565b915061299283611af9565b9250826129a2576129a161294d565b5b828204905092915050565b60006129b882611af9565b91506129c383611af9565b9250826129d3576129d261294d565b5b828206905092915050565b7f4e487b7100000000000000000000000000000000000000000000000000000000600052603260045260246000fd5b600081519050919050565b600082825260208201905092915050565b6000612a3482612a0d565b612a3e8185612a18565b9350612a4e818560208601611a5a565b612a5781611a8d565b840191505092915050565b6000608082019050612a776000830187611b8e565b612a846020830186611b8e565b612a916040830185611ca4565b8181036060830152612aa38184612a29565b905095945050505050565b600081519050612abd816119af565b92915050565b600060208284031215612ad957612ad8611979565b5b6000612ae784828501612aae565b91505092915050565b7f4552433732313a206d696e7420746f20746865207a65726f2061646472657373600082015250565b6000612b26602083611a49565b9150612b3182612af0565b602082019050919050565b60006020820190508181036000830152612b5581612b19565b9050919050565b7f4552433732313a20746f6b656e20616c7265616479206d696e74656400000000600082015250565b6000612b92601c83611a49565b9150612b9d82612b5c565b602082019050919050565b60006020820190508181036000830152612bc181612b85565b905091905056fea264697066735822122030729ffec09ed99b8f0fe23ea738848bec95dcf84e51cbbde822f08909667fb264736f6c634300080a0033",
  "immutableReferences": {},
  "source": "// SPDX-License-Identifier: MIT\npragma solidity <= 9.0.0;\n\nimport \"@openzeppelin/contracts/token/ERC721/ERC721.sol\";\nimport \"@openzeppelin/contracts/token/ERC721/extensions/ERC721URIStorage.sol\";\nimport \"@openzeppelin/contracts/utils/Counters.sol\";\n\n/**\n * TODO:\n *  - Read ERC721 to understand how the NFT precisely works\n *      https://github.com/OpenZeppelin/openzeppelin-contracts/blob/master/contracts/token/ERC721/ERC721.sol\n *  - To call all functions of ERC721\n */\ncontract NFT is ERC721 {\n\n    using Counters for Counters.Counter;\n    Counters.Counter private _tokenIds;\n    mapping(uint256 => string) private _tokenURIs;\n\n    constructor(\n        string memory name,\n        string memory symbol\n    )\n    ERC721(name, symbol)\n    {\n    }\n\n    function mint(address owner, string memory uri) public {\n        _tokenIds.increment();\n\n        uint256 id = _tokenIds.current();\n        _safeMint(owner, id);\n        _tokenURIs[id] = uri;\n    }\n\n    function getURI(uint256 tokenId) public view returns(string memory) {\n        require(!_compareStrings(_tokenURIs[tokenId], \"\"), \"Search URI for an inexistant token\");\n        return _tokenURIs[tokenId];\n    }\n\n    function _compareStrings(string memory a, string memory b)\n    internal pure returns (bool) {\n        return (\n            keccak256(abi.encodePacked((a))) ==\n            keccak256(abi.encodePacked((b)))\n        );\n    }\n}",
  "sourcePath": "/home/l.gicquel/NFT/solidity/contracts/NFT.sol",
  "compiler": {
    "name": "solc",
    "version": "0.8.10+commit.fc410830.Emscripten.clang"
  },
  "schemaVersion": "3.4.4",
  "updatedAt": "2022-01-13T16:00:32.159Z",
  "networkType": "ethereum",
  "devdoc": {
    "kind": "dev",
    "methods": {
      "approve(address,uint256)": {
        "details": "See {IERC721-approve}."
      },
      "balanceOf(address)": {
        "details": "See {IERC721-balanceOf}."
      },
      "getApproved(uint256)": {
        "details": "See {IERC721-getApproved}."
      },
      "isApprovedForAll(address,address)": {
        "details": "See {IERC721-isApprovedForAll}."
      },
      "name()": {
        "details": "See {IERC721Metadata-name}."
      },
      "ownerOf(uint256)": {
        "details": "See {IERC721-ownerOf}."
      },
      "safeTransferFrom(address,address,uint256)": {
        "details": "See {IERC721-safeTransferFrom}."
      },
      "safeTransferFrom(address,address,uint256,bytes)": {
        "details": "See {IERC721-safeTransferFrom}."
      },
      "setApprovalForAll(address,bool)": {
        "details": "See {IERC721-setApprovalForAll}."
      },
      "supportsInterface(bytes4)": {
        "details": "See {IERC165-supportsInterface}."
      },
      "symbol()": {
        "details": "See {IERC721Metadata-symbol}."
      },
      "tokenURI(uint256)": {
        "details": "See {IERC721Metadata-tokenURI}."
      },
      "transferFrom(address,address,uint256)": {
        "details": "See {IERC721-transferFrom}."
      }
    },
    "version": 1
  },
  "userdoc": {
    "kind": "user",
    "methods": {},
    "notice": "TODO:  - Read ERC721 to understand how the NFT precisely works      https://github.com/OpenZeppelin/openzeppelin-contracts/blob/master/contracts/token/ERC721/ERC721.sol  - To call all functions of ERC721",
    "version": 1
  }
}